:020000040800F2
:10000000B01A0020D5000008751600084F1400082B
:1000100000000000000000000000000000000000E0
:10002000000000000000000000000000C3160008EF
:100030000000000000000000C1160008C5160008FE
:10004000E7000008E7000008E7000008E7000008F4
:10005000E7000008E7000008E7000008E7000008E4
:1000600000000000E700000849020008E70000085F
:10007000E7000008E700000800000000E7000008B3
:1000800000000000E7000008000000000000000081
:10009000E700000800000000E7000008E700000893
:1000A000E7000008E7000008E70000082D1C000832
:1000B0003D1C000851140008000000000000000072
:1000C0000348854600F08EF800480047891C000868
:1000D000B01A00200448804704480047FEE7FEE7C6
:1000E000FEE7FEE7FEE7FEE74D170008C100000847
:1000F00030B50B46014600202022012409E00D46C0
:10010000D5409D4205D31D469540491B2546954047
:1001100040191546521E002DF1DC30BDF0B51FB45C
:100120000646002082B005464024019100901BE065
:10013000019922460F46304600F042F8049A059B8A
:10014000801A994110D310461946224600F028F82B
:10015000361A8F410197224601200021009F00F0AE
:100160001FF838184D4100902046641E0028DFDC3F
:10017000019B00982946324607B0F0BDD2B201E09B
:100180000270401C491EFBD270470022F6E710B5F2
:1001900013460A4604461946FFF7F0FF204610BDF5
:1001A00010B5202A04DB0146203A9140002010BD02
:1001B000914020239C1A0346E3401943904010BD10
:1001C00010B5202A04DB0846203AD040002110BD9B
:1001D0000B46D340D0402024A21A91400843194630
:1001E00010BD0000064C0125064E05E0E36807CC73
:1001F0002B430C3C98471034B442F7D3FFF764FF0D
:10020000101D0008301D000810B50D4C2068C16994
:10021000C943C90613D410210162204600F01DFF16
:10022000E06E006840680122D202111A0548418040
:100230000121017001460831204601F0A9F810BDE6
:1002400018000020A402002010B5024800F085F834
:1002500010BD00009801002030B5446C1C252C40D6
:100260000125A540046C6560046863608368102BF9
:10027000036803D099600068C26030BD9A6000686E
:10028000C16030BD10B50D4C2068C169C943C906B5
:1002900013D410210162204600F0DFFEE06E0068FA
:1002A00040686421091A06486422418001210170D6
:1002B00001460831204601F06BF810BD18010020FE
:1002C00038020020704730B5014620314A790023BA
:1002D000022A04D00422C2630B71012030BD0268DF
:1002E00014680E25AC431460026814686408640046
:1002F0001460446C1C22144001221546006CA54079
:1003000045604A7118460B7130BD70B50024014636
:1003100020314A79022A03D00421C163012418E064
:10032000026813680E25AB431360026813685B080C
:100330005B001360436C1C221340012215469D4054
:10034000036C5D604A7100220A71816B002900D044
:100350008847204670BDC06B7047F0B4016C0D68D3
:1003600001680C68466C1C2304221E401746B740E7
:100370002F420ED067070CD50C68A40602D40C6877
:1003800094430C60416C19408A40016C4A60016BD7
:100390001AE00227B74002462F402032002F17D024
:1003A000A70715D50C68A40605D40C680A25AC432C
:1003B0000C6001215171446C02211C40036CA1406E
:1003C000596000211171C16A002918D0F0BC08479A
:1003D0000827B7402F4212D0240710D50C680E25ED
:1003E000AC430C60446C01211C400B46A340046CE0
:1003F0006360C163517100211171416BE4E7F0BC8E
:100400007047000070B504003CD01F4825681421D7
:100410002818FFF76DFE800060641C4820640221EC
:10042000204620300246417129681948E36801409E
:10043000A06866691843236933431843A3691843C6
:10044000E3691843236A1843084328600121A06820
:100450008903884210D00D488030836A656C1C2166
:100460000D400F26AE40B3438362656C63680D4058
:10047000816AAB400B4383620020E063012151712C
:10048000107170BD012070BDF8FFFDBF000002407B
:100490000F80FFFFF8B504468C4620300179002517
:1004A000012909D00126067141790027012905D0CB
:1004B000077102252846F8BD0220F8BD02214171CE
:1004C000E7632068016849084900016061462046E9
:1004D000FFF7C2FE206B00282068016801D00E22C1
:1004E00005E0042291430160206801680A2211435B
:1004F00001602068016831430160DBE7F8B5002343
:100500000124A2E027469F403A4070D04D68022D5A
:1005100001D0122D14D1DD08AD002D1800952D6AE3
:100520005E07AC46F50E0F26AE46AE406546B543B7
:10053000AC460E697546AE4065462E43009D2E6260
:100540004D68012D05D0022D03D0112D01D0122DA3
:1005500016D185680326AC465D00AE46AE406546C2
:10056000B543AC46CE687546AE4065462E438660C0
:1005700046680D79BE43ED06ED0F9D40354345605D
:1005800006685F000325BD40AE46AE430D79B44614
:10059000AE07B60FBE4065462E430660C668754678
:1005A000AE438D68BD403543C5604D68ED004BD509
:1005B000294D6E6B26436E639E08284DB600751953
:1005C000AC46AD689E07360F0F27B740BD430527E1
:1005D0003F07B84201D1002715E0214FB84201D1B1
:1005E000012710E01F4FB84202D102270BE02BE099
:1005F0001D4FB84201D1032705E01C4FB84201D17D
:10060000052700E00627B7402F436546AF60184D29
:100610002E684F689643FF0300D516432E606E6820
:100620004F689643BF0300D516436E60AE684F68AF
:100630009643FF0200D51643AE60EE684F689643BE
:10064000BF0200D51643EE605B1C0A681546DD400C
:1006500000D057E7F8BD0000001002400000014044
:100660000004005000080050000C0050001C005016
:1006700000040140002A01D0816170478162704707
:1006800001480068704700000000002070B50400B9
:100690000FD021681348086021681348086003CC14
:1006A00041602068083C21688860FFF7E9FF054643
:1006B00008E0012070BDFFF7E3FF401B302801D99F
:1006C000032070BD2068C0680028F4D1206802694A
:1006D000E1688A4201D0016101E004490160002023
:1006E00070BD0000CCCC000055550000AAAA000047
:1006F00010B50848002401684022114301602046DB
:1007000000F00AF8002801D0012401E000F01CF8F4
:10071000204610BD0020024070B5054609487D21E5
:100720000024C9000068FFF7E3FC00F07DFC00280E
:1007300001D0012404E000222946501E00F01AF8DE
:10074000204670BD040000200448416B0122114383
:100750004163816B020411438163704700100240C2
:10076000C106C90E01208840014908607047000099
:1007700000E100E010B500F081FF10BDF8B50446BF
:100780000078544D800672D5524E0027403EB06B23
:10079000C00004D4B06BA9050843B06301274E48DC
:1007A0000168C90511D40168821511430160FFF782
:1007B00067FF009005E0FFF763FF0099401A642887
:1007C00037D845480068C005F5D5326803210905CA
:1007D00060680A400140914208D08103890F0329D3
:1007E00004D13168890301D50120F8BD2A690321AC
:1007F00009040A4022D0084090421FD02078800689
:100800001CD528692A6988430121C9040A432A6141
:100810002A698A432A612861C0050FD5FFF730FF96
:10082000009008E0FFF72CFF0099411A2B48814205
:1008300001D90320F8BD28698005F3D561688803D4
:10084000800F032805D132680005824301400A4326
:10085000326028690322616812041140084328614C
:10086000002F04D0B16B012000078143B1632078D1
:10087000C00705D0E868A168800880000843E860E8
:100880002078800705D5E8680C218843E168084393
:10089000E8602078400706D5E8680321890288438C
:1008A00021690843E8602078000706D5E86803213D
:1008B0000903884361690843E8602078000606D58B
:1008C000E868032189048843A1690843E86000209F
:1008D000F8BD000040100240007000408813000086
:1008E00070470000F8B50E4605007DD053480068FB
:1008F000C007C00FB0420AD25048016849084900F9
:10090000314301600068C007C00FB04271D1287840
:100910004B4C800705D5E068F0218843A96808435F
:10092000E0602878C00752D06868022817D00328F2
:1009300018D02168012818D08905002959DAE16802
:10094000890889000143E160FFF79AFE696807465C
:10095000022912D003291CD0012926D033E02168B6
:100960008903EAE721688901E7E74907E5E7FFF737
:1009700087FEC11B3348814223D8E0680007800FFF
:100980000228F4D123E0FFF77BFEC11B2D488142F2
:1009900017D8E0680007800F0328F4D117E0FFF7AD
:1009A0006FFEC11B274881420BD8E0680007800F0B
:1009B0000128F4D10BE0FFF763FEC11B21488142FF
:1009C00001D90320F8BDE0680007800FF3D11B4870
:1009D0000168C907C90FB1420DD90168490849002A
:1009E00031430160006800E003E0C007C00FB0427F
:1009F00001D00120F8BD2878400706D5E06807211E
:100A000009028843E9680843E0602878000707D5B1
:100A1000E0680721C90288432969C9000843E060EA
:100A200000F040F8E168084A0906090F515CC84027
:100A3000064908600020FFF76FFEF8BD0020024065
:100A40000010024088130000EE1C00080400002083
:100A5000034801680122D20411430160704700007D
:100A600000100240044805490068C968044A490565
:100A7000490F515CC840704704000020001002403C
:100A8000071D0008044805490068C968044A89042C
:100A9000490F515CC840704704000020001002401C
:100AA000071D000810B5184AD1680C20084004281A
:100AB0000BD0082810D00C2810D050680004410F2B
:100AC0000120C003491C884010BD1068C00601D534
:100AD0000E4810BD0E4810BD0E4810BD88020E4BCA
:100AE000000F185C0902D368890F491CDB0301D58C
:100AF000084A05E01268D20601D5044A00E0044A1B
:100B00005043FFF7F5FA10BD0010024000093D0008
:100B10000024F40000127A00FE1C000810B5044CFA
:100B20006069C00503D5FFF7DBFEA015A06110BD0D
:100B300000100240FEB505007ED0FE4CE7680C2098
:100B4000E66807400120000406402878C00747D027
:100B5000082F05D00C2F0AD101200004864206D1AF
:100B6000206880033CD568680028E5D038E0012083
:100B700069680004814203D121680143216011E0CA
:100B8000052301221B0492049942216802D11143DA
:100B90002160F1E7814321602168014000912068D4
:100BA00090432060686800280DD0FFF769FD009031
:100BB00005E0FFF765FD0099401A64287AD820689F
:100BC0008003F6D50CE0FFF75BFD009005E0FFF732
:100BD00057FD0099401A6428F0D820688003F6D4A5
:100BE0002878800755D50923E868042F0DD00C2FED
:100BF00001D1002E09D000283BD021689943014340
:100C00002160FFF73DFD064627E02168490701D531
:100C1000002891D061681F22120291432A691202B2
:100C2000114361602168994301432160FFF73AFF56
:100C3000E16809060A0F00E079E1BF49895CC84014
:100C4000BE4908600020FFF767FD002872D120E050
:100C5000FFF716FD801B0228B0D820684007F7D5A3
:100C600060681F21090288432969090208436060FE
:100C70000FE02068400840002060FFF701FD0646B5
:100C800004E0FFF7FDFC801B022897D8206840078E
:100C9000F7D42878C0065FD5002F0CD0A8690028AB
:100CA00049D02068FF21013108432060FFF7E8FCAC
:100CB00006462DE0C0E02068800502D5A86900281E
:100CC000A7D06068072149038843296A0843606008
:100CD0006068297F0002000A090608436060286AEC
:100CE000410B0120C003491C8840E16809060A0F36
:100CF0009149895CC840914908600020FFF70CFDCC
:100D0000002817D128E0FFF7BBFC801B0228A3D8DE
:100D100020688005F7D56068072149038843296A60
:100D2000084360606068297F0002000A09060843E2
:100D3000606011E0E1E02168FF2001308143216023
:100D4000FFF79EFC064604E0FFF79AFC801B022892
:100D500072D820688005F7D42878794E000724D50A
:100D600068690028306910D0012108433061FFF71D
:100D700087FC009005E0FFF783FC0099401A0228E9
:100D80005AD830698007F6D50FE04008400030613E
:100D9000FFF776FC009005E0FFF772FC0099401A1F
:100DA000022849D830698007F6D42878400765D5ED
:100DB00000200290A06BC00006D4A06B012109079F
:100DC0000843A063012002905E480168C90511D460
:100DD0000168821511430160FFF752FC009005E0A5
:100DE000FFF74EFC0099401A642825D85548006842
:100DF000C005F5D5FF20AA680130824203D13169D0
:100E00000143316111E001218902002A07D0052345
:100E10001B029A4203D132690A433261EFE7326919
:100E200082433261306988433061A86800280FD05E
:100E3000FFF726FC009007E05EE0FFF721FC009939
:100E4000411A4148814257D830698005F5D50DE0F7
:100E5000FFF716FC009006E0FFF712FC0099411A1C
:100E60003948814248D830698005F5D40298002875
:100E700004D0A06B012109078843A063686A002899
:100E800064D00C2F3ED0012636060228206805D0FB
:100E9000B0432060FFF7F4FB05462FE0B04320602D
:100EA000FFF7EEFB074604E0FFF7EAFBC01B022852
:100EB00022D820688001F7D4E96AA86AE26808436A
:100EC000296BFD231B049A4311430843E06020680B
:100ED00030432060FFF7D4FB054604E0FFF7D0FB6A
:100EE000401B022808D820688001F7D52EE0FFF7C4
:100EF000C7FB401B022801D90320FEBD20688001EA
:100F0000F5D423E00128F8D0E06801210904AA6A99
:100F1000014091420BD10F218904EA6A01409142BC
:100F200005D1032189050840296B88420ED0012094
:100F3000FEBD000000100240EE1C0008040000206E
:100F40004010024000700040881300000020EFE7CE
:100F500070B5040007D0002625464035A662687C9F
:100F6000002802D005E0012070BD2E74204600F05C
:100F70002FF80220687420680168402291430160C4
:100F8000A168606822690843E16811430843616908
:100F900001220843A169520211400843E169084354
:100FA000216A0843A16A084321680860A0690421F6
:100FB000000C0840616A0843216848602068C169E4
:100FC00092009143C161666501206874002070BD84
:100FD00010B586B0044614216846FFF7D6F81049CC
:100FE0002068884219D10F48416B82141143416334
:100FF000C16A01221143C162C06A002110400590FC
:10100000E0200090022001900320039002910491BF
:10101000052069460007FFF771FA06B010BD000011
:101020000030014000100240094910B5401E8842BE
:1010300001D9012010BD074C60610321081F00F099
:101040001DFB0020A06107202061002010BD0000D2
:10105000FFFFFF0000E000E0704770B5416F0446FD
:10106000856F0068826810261206002A14DA21298A
:1010700012D18168802291438160A06E002808D03F
:10108000FFF721F9002804D0A06EFFF764F92028AB
:101090001DD0204600F07CFC20688168490614D5EC
:1010A000222D12D18168402291438160E06E002898
:1010B00008D0FFF708F9002804D0E06EFFF74BF9DD
:1010C000202804D0204600F053FC002070BDE667C5
:1010D000032070BD70470000F8B502680446D0696F
:1010E0001168936805072D0F5BD0DD07ED0FFF2614
:1010F00021360E402E4367D0C60706D0CE0504D554
:1011000001261662E26F3243E26787070222042655
:10111000002F06DADF0704D027683A62E76F37430B
:10112000E767470706D5DB0704D023681E62E36F35
:101130001343E367020709D520220A402A4305D05A
:10114000236808221A62E36F1343E367E26F002A01
:101150002FD0800606D5880604D5216E002901D03F
:1011600020468847E06F21688968490601D4000756
:1011700024D5204600F0FCFB20688168490619D57B
:101180008168402291438160E06E002812D020499E
:101190008163E06EFFF7B9F800280AD0E06E816B3A
:1011A00006E0850610D58D060ED5216E1CE0204682
:1011B0008847F8BD2046FFF78DFFF8BD2046FFF7B2
:1011C00089FF0020E067F8BDC50208D55B0206D59F
:1011D0000120000510622046FFF73EFFF8BD030620
:1011E00005D50B0603D5616E0029E0D1F8BD400698
:1011F000FCD54806FAD51368204640218B4313607E
:10120000202161670021616600F020F9F8BD00002F
:10121000CD18000810B5040003D0606F002802D07C
:1012200007E0012010BD002170200155204600F08C
:1012300027F8242060672068016849084900016098
:10124000204600F0ADFB0128ECD0606A002802D0F7
:10125000204600F0A5FA206841680922D202914395
:101260004160206881682A2291438160206801687A
:10127000012211430160204600F0F8FA10BD000081
:10128000F0B587B0074614216846FEF77EFF394A5D
:101290003B6800253849022403200426934229D1C3
:1012A0008A6B63041A438A63CA6A2243CA62C96AA0
:1012B0006A4621400591810232C241C269462F48E7
:1012C000FFF71CF92F4C2E482060A5600520E56033
:1012D00060606561A561E56180202562206120462E
:1012E000FFF790F8002801D0FEF7ECFFFC66A7623C
:1012F00007B0F0BD244FBB4217D14B6B0127BF0392
:101300003B434B63CB6A01273B43CB62C96A6A46C6
:1013100039400591790232C20546052060C269460E
:101320000007FFF7EBF8B8021AE0184FBB42DFD115
:101330008B6B01277F043B438B63CB6A01273B43C5
:10134000CB62C96A02953940009605460390059123
:1013500005200194694604960007FFF7CFF808209E
:101360006A4691C2052060C269460007FFF7C6F8C9
:10137000BEE700000048004000100240000400509A
:101380003000024098010020003801400044004035
:10139000F8B50446806F20284DD100290BD0002AD3
:1013A00009D00123A0681B03984206D120690028B8
:1013B00003D1C80701D00120F8BD25466035287C3F
:1013C000012838D001202874582061650253002676
:1013D000E6672220A067E06E002819D01749C16295
:1013E000E16E17480863E16E16484863E06E1346E5
:1013F0008663676D21683A462431E06EFFF74AF84C
:10140000002805D01020E0672E7420206067D2E706
:101410002E7420680168FF220132114301602068A8
:101420008168012211438160206881684022114354
:1014300081600020F8BD0220F8BD000029190008D5
:1014400067190008E1180008704770477047FEE709
:1014500010B5FEF7D9FE0248FFF73EFE10BD0000B2
:101460001800002008B50448016B012211430163F4
:10147000006B1040009008BD00100240F0B587B02E
:1014800014216846FEF781FE2E48C26A04210A43F1
:10149000C262C26A0A400592C26A80210A43C262DD
:1014A000C26A0A400592C16A01252943C162C16A24
:1014B00029400591C26A02210A43C262C06A224FD2
:1014C00008404C030590002221463846FFF7D2F829
:1014D000052000221D490007FFF7CCF80520012256
:1014E00012210007FFF7C6F8194E012231461948AC
:1014F000FFF7C0F80094002401950294694638462D
:101500000394FEF7FBFF114802941230009005206F
:101510006946019503940007FEF7F0FF02946946BF
:101520000C48009601950394FEF7E8FF280300900D
:1015300005200194694602940007FEF7DFFF07B01B
:10154000F0BD00000010024000080050010900003A
:10155000187000000004005010B5084806490160EA
:10156000042141600649C1608160FFF78FF80028BF
:1015700001D0FEF7A7FE10BD00300040080000209B
:101580007102000010B50C480A4901600B49416026
:101590000121090781600021C160016181610C2284
:1015A000016242614162FFF735FE002801D0FEF77B
:1015B00089FE10BD004800401800002024330300BD
:1015C00010B50F480D490160FF2105314160002130
:1015D0008160C16001220161520282614161016248
:1015E00020224162C26181620721C162FFF7B0FC23
:1015F000002801D0FEF766FE10BD0000003001405B
:10160000E001002010B50C480A490160E1214902BF
:10161000416000218160C16001618161C1610C2272
:10162000016242614162FFF7F5FD002801D0FEF73B
:1016300049FE10BD003801409800002010B50C484C
:101640000A490160E1214902416000218160C160D5
:1016500001618161C1610C22016242614162FFF757
:10166000D9FD002801D0FEF72DFE10BD004400403A
:101670001801002010B5FFF751FA10BD8307FF22B3
:10168000DB0E9A408907090E994000280BDA000703
:10169000000F0838830808489B001818C369934353
:1016A0000B43C3617047830804489B001B181868EC
:1016B000904308431860704700ED00E000E400E04C
:1016C000704770477047000010B59AB034216846E3
:1016D000FEF75BFD142114A8FEF757FD1C210DA891
:1016E000FEF753FD184801680322D2029143C21449
:1016F0008918016009200090012105915001019095
:101700000A900320022180040B9048050C90099157
:101710006846FFF70FFA0F2014900024032015905D
:10172000169417940121189414A8FFF7DBF80720EA
:101730000D900F94109411940DA8FFF71FF8FFF768
:1017400087F91AB010BD0000007000401048016811
:10175000821511430160C1680E4A1140C1600168E1
:101760000D4A1140016081684908490081600168A3
:101770000122920491430160C168FD221204914349
:10178000C160002101610549C00388607047000005
:10179000001002400C40FF88F6FFF6FE00ED00E06E
:1017A00010B5818CC90707D001684A6801235B0422
:1017B0009A43836A1A434A60818C890707D5016876
:1017C0004A6801231B049A43C36A1A434A60818C06
:1017D000490707D501684A6801239B049A43036BB4
:1017E0001A434A60818C090707D501684A680123BA
:1017F000DB039A43436B1A434A60818CC90607D5C1
:101800000268916801231B039943836B194391601C
:10181000818C890607D501688A6801235B039A4396
:10182000C36B1A438A60818C490612D503685A68D3
:1018300001210905046C8A4322435A60026C8A42E2
:1018400007D10268516803235B059943436C194330
:101850005160818C090607D501684A680123DB04C1
:10186000806C9A4302434A6010BD0000F8B5002620
:101870000446C667FEF704FF054620680068124F5D
:10188000000709D501212B46002249052046009773
:1018900000F09AF900280DD12068006840070BD5A8
:1018A00001212B46002289052046009700F08CF983
:1018B000002801D00320F8BD20206067A0676034B5
:1018C00026740020F8BD0000FFFFFF0110B5806AFC
:1018D0000022014640314A834A82FFF7FBFB10BDDC
:1018E00070B5846A606FA56F216889680026090653
:1018F000002906DA212804D152200653204600F0A0
:1019000047F820688068400606D5222D04D15A2069
:101910000653204600F02CF8E06F10210843E067E2
:101920002046FFF7D7FB70BD10B501460968806AF5
:101930000968890614D400225A210A5201680A68EB
:10194000FF2301339A430A6001688A6852085200F3
:101950008A6001688A6840239A438A6020218167EF
:10196000FFF772FD10BD10B5806AFFF76EFD10BD68
:1019700001680A68FF2321339A430A6001688A6874
:10198000520852008A602021816700210166704759
:1019900001680A68C0239A430A60202141677047A2
:1019A000F8B504462669A268E769324366691020E3
:1019B00000253E432368324378491E68784F3E40F5
:1019C00016431E6023685A6803263603B243E6684E
:1019D00032435A602368A2698B4201D0266A32439F
:1019E0009E680B273F02BE4316439E606D4E2368E0
:1019F0006D4AB3420CD1D2689207920F06D0012AE9
:101A000038D0022A34D0032A20D11EE001201DE064
:101A1000664EB3420AD1D2680C26324026D0042A40
:101A200028D0082A24D00C2A10D10EE08B420DD1E8
:101A3000D66803229202164018D001229202B61AEA
:101A400018D0B61A14D0964200D10820564A012662
:101A5000403A574FF6038B4236D100280CD002286B
:101A60000DD0042812D008281FD11CE00020EDE77B
:101A70000220EBE70420E9E7FEF7F4FF08E0106836
:101A8000C00601D5384605E04A4803E0FFF70AF8EA
:101A9000002873D0626851005118814205D81103A3
:101AA000814202D303E03046F4E7012566E0010EEF
:101AB00006025008002330185941FEF72FFB03217E
:101AC0000902411A3C4A55E0E169B14232D10300B2
:101AD00000F0BEF809070A0D06250606062B0600CB
:101AE000E3E7FEF7BFFF1CE0FEF7CCFF19E010684C
:101AF0006168C00602D54808304A01E0304A48080B
:101B00008018FEF7F5FA80B201462E4A103991424C
:101B1000CBD8511C01400007400F08432CE0FEF7D2
:101B2000C1FF616840004A08EAE76168012248088D
:101B30001204E5E7030000F08BF809070A0D0626FA
:101B40000606062C0600B0E7FEF78CFF1DE0FEF748
:101B500099FF1AE010686168C00602D54808C019EC
:101B600002E014484A081018FEF7C2FA80B2014693
:101B7000144A1039914298D82168C8600020206624
:101B800060662846F8BDFEF78DFF61684A08801838
:101B9000EAE7616848088019E6E70000004800406D
:101BA000F369FFEF0038014040100240004400405C
:101BB00000093D000024F400FFFC0F0000127A0031
:101BC0000048E801EFFF0000FFB581B017460E4660
:101BD00004460A9D09E0681C07D0FEF751FD0499F0
:101BE000401AA8420CD8002D0AD02068C16930469E
:101BF000884318D00020B842EDD0002005B0F0BDD9
:101C000020680168FF22A132914301602068816849
:101C100049084900816020206067A0670020603487
:101C200020740320EAE70120E5E7000010B5024830
:101C3000FFF752FA10BD00009800002010B5FEF723
:101C400021FB0248FFF748FA10BD000018010020F0
:101C500030B47446641E2578641CAB4200D21D4625
:101C6000635D5B00E31830BC184702E008C8121F30
:101C700008C1002AFAD170477047002001E001C175
:101C8000121F002AFBD17047FEF732FDFFF71CFD43
:101C9000FFF7F4FBFFF7E6FBFFF792FCFFF7B2FC60
:101CA000FFF7CCFCFFF758FCFFF76CFC0022114655
:101CB0001D20FEF75FFD1D20FEF752FD002211469C
:101CC0001C20FEF757FD1C20FEF74AFD002211469E
:101CD0001B20FEF74FFD1B20FEF742FD00221146A0
:101CE0000A20FEF747FD0A20FEF73AFDFEE7000056
:101CF00000000000000001020304060708090304B5
:101D000006080C1018203000000000010203040037
:101D1000301D000800000020080000006A1C0008B8
:101D2000381D000808000020A81A00007A1C0008CE
:081D300000000000000020008B
:04000005080000C12E
:00000001FF
