:020000040800F2
:10000000D0180020D5000008FD210008251E00089A
:1000100000000000000000000000000000000000E0
:10002000000000000000000000000000A1290008FE
:1000300000000000000000008B2700081D2A0008B7
:10004000E7000008E7000008E7000008E7000008F4
:10005000E7000008E7000008E7000008E7000008E4
:1000600000000000E70000085103000861030008D9
:10007000E7000008E700000800000000192B000856
:1000800000000000E7000008000000000000000081
:10009000E700000800000000E7000008E700000893
:1000A000E7000008E7000008E700000871300008DA
:1000B00081300008891E00080000000000000000D8
:1000C0000348854600F0A2F800480047A938000818
:1000D000D01800200448804704480047FEE7FEE7A8
:1000E000FEE7FEE7FEE7FEE7A52A0008C1000008DC
:1000F00030B50B46014600202022012409E00D46C0
:10010000D5409D4205D31D469540491B2546954047
:1001100040191546521E002DF1DC30BDF0B51FB45C
:100120000646002082B005464024019100901BE065
:10013000019922460F46304600F056F8049A059B76
:10014000801A994110D310461946224600F03CF817
:10015000361A8F410197224601200021009F00F0AE
:1001600033F838184D4100902046641E0028DFDC2B
:10017000019B00982946324607B0F0BDD2B201E09B
:100180000270401C491EFBD270470022F6E710B5F2
:1001900013460A4604461946FFF7F0FF204610BDF5
:1001A00030B505462A460B4610781C78521C5B1C5D
:1001B000002801D0A042F7D0002C03D0002802D0A4
:1001C0006D1CEFE7284630BD10B5202A04DB014640
:1001D000203A9140002010BD914020239C1A0346F4
:1001E000E3401943904010BD10B5202A04DB0846B7
:1001F000203AD040002110BD0B46D340D0402024EF
:10020000A21A91400843194610BD0000064C012572
:10021000064E05E0E36807CC2B430C3C98471034AE
:10022000B442F7D3FFF750FF683A0008883A000855
:1002300010B506480068016810221143016032229F
:100240000349024801F028FD10BD000058000020BD
:100250005207002010B503F065FB7D20C00000F0C0
:10026000C5FBFFF7E5FF084801F0EEFF002802D0CC
:1002700006A002F04DFF084802F01AF80248801F5D
:1002800002F08AF810BD00001C000020CED5CAD6AE
:10029000CAA7B0DC0D0A0000600F002010B500F006
:1002A00083FC02F0BDFB01F089FE01F07BFE01F052
:1002B0003FFF01F05FFF01F079FF01F0F3FE01F075
:1002C0000DFF02A002F024FF10BD0000696E6974EA
:1002D0002E2E2E0D0A000000F8B50E4607461546D4
:1002E0000421052000F029F80021012002F0F8FE89
:1002F00080210A2002F087FB002405E0395D0920F7
:1003000002F0EEFE641CE4B2B442F7D303210120F4
:1003100002F0E6FEFF24052002F081FA641E2406A6
:10032000240E01D04007F6D5222002F078FA28707A
:10033000212002F074FA6870F8BD70B50C460546CD
:1003400002F06DFAA0430146284602F0C9FE70BDD6
:1003500010B5024800F07AFA10BD0000200200201B
:1003600010B5034800F072FA024800F06FFA10BDB1
:1003700068020020D801002030B5446C1C252C40B8
:100380000125A540046C6560046863608368102BD8
:10039000036803D099600068C26030BD9A6000684D
:1003A000C16030BD10B506480068016810221143D5
:1003B000016064220349024801F06EFC10BD000098
:1003C000580100204C03002070B5114C012210216F
:1003D000204600F0D5FB7D20C00000F007FB002286
:1003E0001021204600F0CCFB7D252D01284600F091
:1003F000FDFA01221021204600F0C2FB284600F041
:10040000F5FA284600F0F2FA284600F0EFFA70BD3F
:100410000004005010B50D4C2068C169C943C906DD
:1004200013D410210162204601F05EFAE06E0068EC
:10043000406801229202111A054841800121017091
:1004400001460831204601F027FC10BD580100206C
:100450004403002000B5030002F06AFE21121416C6
:10046000181A1C1E20222426283C3C3C3C282A3CEE
:100470003C3C2C3C3C2E303234363C3C383A3C0040
:1004800015A000BD15A000BD18A000BD1CA000BD9A
:1004900020A000BD27A000BD2EA000BD34A000BD3F
:1004A00041A000BD43A000BD46A000BD49A000BDC5
:1004B0004CA000BD4FA000BD57A000BD5AA000BD7C
:1004C0005CA000BD5FA000BD63A000BD67A000BD33
:1004D00069A000BD6BA000BD4F4B0000CAFDBEDD92
:1004E000B0FCBDD3CAD5B4EDCEF30000B4ABB8D0E8
:1004F000C6F7C9CFC3BBD3D0CAD6D6B80000000058
:10050000C2BCC8EBD6B8CEC6CDBCCFF1CAA7B0DC52
:1005100000000000D6B8CEC6CDBCCFF1CCABB8C978
:10052000A1A2CCABB5ADB6F8C9FAB2BBB3C9CCD8B1
:10053000D5F70000D6B8CEC6CDBCCFF1CCABCAAA99
:10054000A1A2CCABBAFDB6F8C9FAB2BBB3C9CCD83C
:10055000D5F70000D6B8CEC6CDBCCFF1CCABC2D259
:10056000B6F8C9FAB2BBB3C9CCD8D5F700000000C1
:10057000D6B8CEC6CDBCCFF1D5FDB3A3A3ACB5AB39
:10058000CCD8D5F7B5E3CCABC9D9A3A8BBF2C3E6A9
:10059000BBFDCCABD0A1A3A9B6F8C9FAB2BBB3C915
:1005A000CCD8D5F700000000D6B8CEC6B2BBC6A5E1
:1005B000C5E40000C3BBCBD1CBF7B5BDD6B8CEC622
:1005C00000000000CCD8D5F7BACFB2A2CAA7B0DCE1
:1005D00000000000C9BEB3FDC4A3B0E5CAA7B0DCEB
:1005E00000000000C7E5BFD5D6B8CEC6BFE2CAA797
:1005F000B0DC0000BBBAB3E5C7F8C4DAC3BBD3D0E4
:10060000D3D0D0A7D4ADCABCCDBCB6F8C9FAB2BB62
:10061000B3C9CDBCCFF10000B6C1D0B420464C4127
:10062000534820B3F6B4ED00CEB4B6A8D2E5B4ED8D
:10063000CEF30000CEDED0A7BCC4B4E6C6F7BAC580
:1006400000000000BCC4B4E6C6F7C9E8B6A8C4DA26
:10065000C8DDB4EDCEF30000BCC7CAC2B1BED2B390
:10066000C2EBD6B8B6A8B4EDCEF30000D6B8CEC66D
:10067000BFE2C2FA00000000B5D8D6B7B4EDCEF3A1
:1006800000000000C4A3BFE9B7B5BBD8C8B7C8CF46
:10069000C2EBD3D0CEF300007047000070B5154C0C
:1006A0002078012820D11448007802281CD1207F0E
:1006B000FE2810D1607FEF280DD120462030017830
:1006C000062908D14178092905D100790B4D012867
:1006D0000BD0022028700020608020700548012186
:1006E00089020830FFF751FD70BD05A002F010FD32
:1006F0001120EFE74403002000000020010000204B
:10070000B4F2BFA8B3C9B9A60D0A000010B5FFF72F
:100710005BFEFFF747FE10BD704700007CB5234C21
:10072000234BA17820461D4602260830EA350029D1
:100730001ED0012924D0022919D161687D22491CCB
:1007400012016160914212D91A49097802290ED129
:100750000021616001210091019018331222144997
:10076000284602F043FF0146284603F05FF97CBDAE
:1007700010210922009101900D4928469B1C0CE094
:1007800019880B4A9982518AD1820421134600911B
:100790000190143310220649284602F027FF014633
:1007A000284603F043F9A6707CBD0000300000200D
:1007B0007C0F00200000002030B5014620314A792E
:1007C0000023022A04D00422C2630B71012030BD31
:1007D000026814680E25AC4314600268146864084B
:1007E00064001460446C1C22144001221546006C05
:1007F000A54045604A7118460B7130BD70B50024A4
:10080000014620314A79022A03D00421C163012420
:1008100018E0026813680E25AB4313600268136882
:100820005B085B001360436C1C22134001221546D9
:100830009D40036C5D604A7100220A71816B002942
:1008400000D08847204670BDC06B7047F0B4016C83
:100850000D6801680C68466C1C2304221E40174674
:10086000B7402F420ED067070CD50C68A40602D4FF
:100870000C6894430C60416C19408A40016C4A60DA
:10088000016B1AE00227B74002462F402032002FAA
:1008900017D0A70715D50C68A40605D40C680A253F
:1008A000AC430C6001215171446C02211C40036C6B
:1008B000A140596000211171C16A002918D0F0BC13
:1008C00008470827B7402F4212D0240710D50C68DC
:1008D0000E25AC430C60446C01211C400B46A34028
:1008E000046C6360C163517100211171416BE4E7D5
:1008F000F0BC704770B504003CD01F482568142137
:100900002818FFF7F5FB800060641C482064022172
:10091000204620300246417129681948E3680140A9
:10092000A06866691843236933431843A3691843D1
:10093000E3691843236A1843084328600121A0682B
:100940008903884210D00D488030836A656C1C2171
:100950000D400F26AE40B3438362656C63680D4063
:10096000816AAB400B4383620020E0630121517137
:10097000107170BD012070BDF8FFFDBF0000024086
:100980000F80FFFFF8B504468C4620300179002522
:10099000012909D00126067141790027012905D0D6
:1009A000077102252846F8BD0220F8BD02214171D9
:1009B000E7632068016849084900016061462046F4
:1009C000FFF7DAFC206B00282068016801D00E22B6
:1009D00005E0042291430160206801680A22114366
:1009E00001602068016831430160DBE770B50446AF
:1009F00000F0CCF80546601C00D0641C00F0C6F87E
:100A0000401BA042FAD370BDF8B500230124A2E038
:100A100027469F403A4070D04D68022D01D0122DDC
:100A200014D1DD08AD002D1800952D6A5E07AC4687
:100A3000F50E0F26AE46AE406546B543AC460E6990
:100A40007546AE4065462E43009D2E624D68012DD1
:100A500005D0022D03D0112D01D0122D16D185689D
:100A60000326AC465D00AE46AE406546B543AC4697
:100A7000CE687546AE4065462E43866046680D7961
:100A8000BE43ED06ED0F9D403543456006685F00AF
:100A90000325BD40AE46AE430D79B446AE07B60F52
:100AA000BE4065462E430660C6687546AE438D68F7
:100AB000BD403543C5604D68ED004BD5294D6E6B8B
:100AC00026436E639E08284DB6007519AC46AD6886
:100AD0009E07360F0F27B740BD4305273F07B84293
:100AE00001D1002715E0214FB84201D1012710E0C4
:100AF0001F4FB84202D102270BE02BE01D4FB84236
:100B000001D1032705E01C4FB84201D1052700E0C1
:100B10000627B7402F436546AF60184D2E684F68D3
:100B20009643FF0300D516432E606E684F689643C8
:100B3000BF0300D516436E60AE684F689643FF0250
:100B400000D51643AE60EE684F689643BF0200D5ED
:100B50001643EE605B1C0A681546DD4000D057E77F
:100B6000F8BD0000001002400000014000040050E9
:100B700000080050000C0050001C00500004014010
:100B8000002A01D081617047816270470148006886
:100B9000704700000800002002480168491C0160FD
:100BA000704700000800002010B5084800240168C4
:100BB000402211430160204600F00AF8002801D0CD
:100BC000012401E000F03CF8204610BD0020024066
:100BD00000B5014687B000220F2000F047F80F2033
:100BE00000F03AF81248816B01221143816305A994
:100BF000684600F0B3F900F0D1F90E49FFF778FA32
:100C000001220D4992070A600C4A401ECA604860E2
:100C1000002008618860084600F09AFD002802D094
:100C2000012007B000BD044800F0ADFDF9E7000069
:100C30000010024040420F0008030020E7030000BC
:100C40000448416B012211434163816B020411434B
:100C50008163704700100240C106C90E0120884020
:100C6000014908607047000000E100E010B501F0A4
:100C7000C9FA10BDF8B504460078544D800672D507
:100C8000524E0027403EB06BC00004D4B06BA905A3
:100C90000843B06301274E480168C90511D40168B3
:100CA000821511430160FFF771FF009005E0FFF727
:100CB0006DFF0099401A642837D845480068C00580
:100CC000F5D532680321090560680A400140914268
:100CD00008D08103890F032904D13168890301D524
:100CE0000120F8BD2A69032109040A4022D00840E6
:100CF00090421FD0207880061CD528692A69884335
:100D00000121C9040A432A612A698A432A612861A8
:100D1000C0050FD5FFF73AFF009008E0FFF736FF58
:100D20000099411A2B48814201D90320F8BD286956
:100D30008005F3D561688803800F032805D13268E8
:100D40000005824301400A4332602869032261683A
:100D50001204114008432861002F04D0B16B012018
:100D600000078143B1632078C00705D0E868A16817
:100D7000800880000843E8602078800705D5E8688F
:100D80000C218843E1680843E8602078400706D5D5
:100D9000E86803218902884321690843E8602078D4
:100DA000000706D5E8680321090388436169084301
:100DB000E8602078000606D5E868032189048843A6
:100DC000A1690843E8600020F8BD0000401002401F
:100DD000007000408813000070470000F8B50E4610
:100DE00005007DD053480068C007C00FB0420AD24A
:100DF0005048016849084900314301600068C00754
:100E0000C00FB04271D128784B4C800705D5E068FF
:100E1000F0218843A9680843E0602878C00752D0D1
:100E20006868022817D0032818D02168012818D034
:100E30008905002959DAE168890889000143E160E0
:100E4000FFF7A4FE69680746022912D003291CD0C7
:100E5000012926D033E021688903EAE72168890166
:100E6000E7E74907E5E7FFF791FEC11B33488142F9
:100E700023D8E0680007800F0228F4D123E0FFF7B1
:100E800085FEC11B2D48814217D8E0680007800FFE
:100E90000328F4D117E0FFF779FEC11B27488142F0
:100EA0000BD8E0680007800F0128F4D10BE0FFF7B2
:100EB0006DFEC11B2148814201D90320F8BDE068C5
:100EC0000007800FF3D11B480168C907C90FB14261
:100ED0000DD901684908490031430160006800E00C
:100EE00003E0C007C00FB04201D00120F8BD287850
:100EF000400706D5E068072109028843E9680843EE
:100F0000E0602878000707D5E0680721C902884318
:100F10002969C9000843E06000F060F8E168084A08
:100F20000906090F515CC840064908600020FFF718
:100F30004FFEF8BD00200240001002408813000060
:100F4000443A00080C000020034801680122D20442
:100F500011430160704700000010024010B50F22DD
:100F600002600C4AD3689B079B0F4360D368F02450
:100F700023408360D46807231B021C40C460D268EE
:100F8000D2081A40026104480068C007C00F086018
:100F900010BD000000100240002002400448054936
:100FA0000068C968044A4905490F515CC840704748
:100FB0000C000020001002405D3A0008044805497A
:100FC0000068C968044A8904490F515CC8407047E9
:100FD0000C000020001002405D3A000810B5184ACD
:100FE000D1680C20084004280BD0082810D00C2809
:100FF00010D050680004410F0120C003491C8840F4
:1010000010BD1068C00601D50E4810BD0E4810BDB9
:101010000E4810BD88020E4B000F185C0902D36801
:10102000890F491CDB0301D5084A05E01268D20686
:1010300001D5044A00E0044A5043FFF759F810BDB7
:101040000010024000093D000024F40000127A0064
:10105000543A000810B5044C6069C00503D5FFF789
:10106000BBFEA015A06110BD00100240FEB505003A
:101070007ED0FE4CE7680C20E668074001200004A3
:1010800006402878C00747D0082F05D00C2F0AD17A
:1010900001200004864206D1206880033CD56868A0
:1010A0000028E5D038E0012069680004814203D1BE
:1010B00021680143216011E0052301221B049204F1
:1010C0009942216802D111432160F1E781432160F7
:1010D00021680140009120689043206068680028E2
:1010E0000DD0FFF753FD009005E0FFF74FFD00998D
:1010F000401A64287AD820688003F6D50CE0FFF700
:1011000045FD009005E0FFF741FD0099401A642875
:10111000F0D820688003F6D42878800755D50923B5
:10112000E868042F0DD00C2F01D1002E09D0002823
:101130003BD02168994301432160FFF727FD064614
:1011400027E02168490701D5002891D061681F2256
:10115000120291432A691202114361602168994386
:1011600001432160FFF73AFFE16809060A0F00E03A
:1011700079E1BF49895CC840BE4908600020FFF79B
:1011800027FD002872D120E0FFF700FD801B022818
:10119000B0D820684007F7D560681F21090288434E
:1011A00029690902084360600FE020684008400098
:1011B0002060FFF7EBFC064604E0FFF7E7FC801B2E
:1011C000022897D820684007F7D42878C0065FD552
:1011D000002F0CD0A869002849D02068FF210131D8
:1011E00008432060FFF7D2FC06462DE0C0E02068EF
:1011F000800502D5A8690028A7D0606807214903A7
:101200008843296A084360606068297F0002000AF9
:10121000090608436060286A410B0120C003491C8D
:101220008840E16809060A0F9149895CC8409149E4
:1012300008600020FFF7CCFC002817D128E0FFF75A
:10124000A5FC801B0228A3D820688005F7D560681C
:10125000072149038843296A084360606068297F41
:101260000002000A09060843606011E0E1E021681D
:10127000FF20013081432160FFF788FC064604E02F
:10128000FFF784FC801B022872D820688005F7D401
:101290002878794E000724D568690028306910D075
:1012A000012108433061FFF771FC009005E0FFF772
:1012B0006DFC0099401A02285AD830698007F6D58B
:1012C0000FE0400840003061FFF760FC009005E04F
:1012D000FFF75CFC0099401A022849D83069800762
:1012E000F6D42878400765D500200290A06BC00096
:1012F00006D4A06B012109070843A06301200290D6
:101300005E480168C90511D4016882151143016066
:10131000FFF73CFC009005E0FFF738FC0099401A0D
:10132000642825D855480068C005F5D5FF20AA686F
:101330000130824203D131690143316111E0012161
:101340008902002A07D005231B029A4203D1326981
:101350000A433261EFE73269824332613069884380
:101360003061A86800280FD0FFF710FC009007E05C
:101370005EE0FFF70BFC0099411A4148814257D8C3
:1013800030698005F5D50DE0FFF700FC009006E020
:10139000FFF7FCFB0099411A3948814248D830696F
:1013A0008005F5D40298002804D0A06B012109071C
:1013B0008843A063686A002864D00C2F3ED00126C1
:1013C00036060228206805D0B0432060FFF7DEFB18
:1013D00005462FE0B0432060FFF7D8FB074604E046
:1013E000FFF7D4FBC01B022822D820688001F7D465
:1013F000E96AA86AE2680843296BFD231B049A4343
:1014000011430843E060206830432060FFF7BEFBD3
:10141000054604E0FFF7BAFB401B022808D8206805
:101420008001F7D52EE0FFF7B1FB401B022801D960
:101430000320FEBD20688001F5D423E00128F8D008
:10144000E06801210904AA6A014091420BD10F21F1
:101450008904EA6A0140914205D1032189050840C7
:10146000296B88420ED00120FEBD00000010024012
:10147000443A00080C000020401002400070004078
:10148000881300000020EFE770B5040007D00026A5
:1014900025464035A662687C002802D005E0012080
:1014A00070BD2E74204600F02FF80220687420686A
:1014B0000168402291430160A16860682269084385
:1014C000E16811430843616901220843A16952029E
:1014D00011400843E1690843216A0843A16A0843AF
:1014E00021680860A0690421000C0840616A084373
:1014F000216848602068C16992009143C1616665B6
:1015000001206874002070BD10B586B00446142117
:101510006846FEF73AFE10492068884219D10F4804
:10152000416B821411434163C16A01221143C162BC
:10153000C06A002110400590E02000900220019038
:101540000320039002910491052069460007FFF7EC
:101550005BFA06B010BD00000030014000100240F0
:10156000FFB5044683B00120019000202646403696
:101570000090307C0C9F1D4601280FD00120307454
:10158000FFF704FB0290707C616801280DD0CA1F30
:10159000FD3A08D1A168002905D102E0022007B078
:1015A000F0BD042801D00220C3E00498002828D010
:1015B0000598002825D0002D23D0707C042801D068
:1015C00005207074002060650599A163E587A587F3
:1015D00004992163E586A58620646064206801681B
:1015E000490603D401684022114301600121E068EB
:1015F000C9028842606848D1002804D0012D02D079
:101600003CE0012095E0206B21680088C860206BD9
:10161000801C2063E08E401EE0862FE020688168F9
:10162000890710D5E18E00290DD0019901290AD131
:10163000216B0988C160206B801C2063E08E401EF6
:10164000E0860020019020688168C9070DD0E18FF5
:1016500000290AD0C068A16B0880A06B801CA06321
:10166000E08F401EE08701200190FFF78FFA0146CE
:101670000298081AB84201D3781C59D1E08E00288C
:10168000CCD1E08F0028C9D146E0002801D0012D3F
:101690003CD1206B216800780873206B401C2063CC
:1016A000E08E401EE08631E020688168890710D511
:1016B000E18E00290DD0019901290AD1216B097809
:1016C0000173206B401C2063E08E401EE0860020EA
:1016D000019020688168C9070DD0E18F00290AD0E8
:1016E000C068A16B0870A06B401CA063E08F401E17
:1016F000E08701200190FFF749FA0299401AB842A9
:1017000002D3781C02D013E0002F11D0E08E002805
:10171000CAD1E08F0028C7D139462046029A01F08D
:1017200096F8002807D0012000902020606509E08D
:101730000320009006E0A068002803D12068C1685B
:10174000806801900120707400203074009826E7B2
:1017500070B5040005D025462035687E002802D0EB
:1017600006E0012070BD00202876204600F00AF82F
:1017700002206876211D206801F0D6F901206876E4
:10178000002070BD70470268D36801210B43D3600D
:10179000006882685207520F062A02D002680A4384
:1017A000026000207047704770B504460068016908
:1017B0000025C9438907002915DBC168C94389078A
:1017C00011D4E91E0161012020762068806980071C
:1017D000204602D0FFF7E7FF04E000F078F820464B
:1017E00000F076F8257620680169C943490717D4C7
:1017F000C168C943490713D40421C94301610220C8
:101800002076206880698005800F204602D0FFF78F
:10181000CAFF04E000F05BF8204600F059F8257696
:1018200020680169C943090716D4C168C94309077B
:1018300012D40821C9430161042020762068C069C0
:101840008007204602D0FFF7AEFF04E000F03FF82B
:10185000204600F03DF8257620680169C943C90695
:1018600017D4C168C943C90613D41021C943016103
:10187000082020762068C0698005800F204602D0AD
:10188000FFF791FF04E000F022F8204600F020F876
:10189000257620680169C943C90708D1C168C943D1
:1018A000C90704D1891E0161204600F012F82068A2
:1018B0000169C943490609D4C168C943490605D429
:1018C0004021C9430161204600F00CF870BD70470B
:1018D000704710B5006801218907884201D1FFF7E0
:1018E0005BF910BD7047704770B5416F0446856F56
:1018F0000068826810261206002A14DA212912D103
:101900008168802291438160A06E002808D0FEF794
:1019100053FF002804D0A06EFEF796FF20281DD0AC
:10192000204601F057FA20688168490614D5222D17
:1019300012D18168402291438160E06E002808D076
:10194000FEF73AFF002804D0E06EFEF77DFF202866
:1019500004D0204601F02EFA002070BDE667032077
:1019600070BD7047F8B502680446D0691168936885
:1019700005072D0F5BD0DD07ED0FFF2621360E404A
:101980002E4367D0C60706D0CE0504D501261662C1
:10199000E26F3243E267870702220426002F06DA4D
:1019A000DF0704D027683A62E76F3743E7674707E6
:1019B00006D5DB0704D023681E62E36F1343E36799
:1019C000020709D520220A402A4305D023680822AD
:1019D0001A62E36F1343E367E26F002A2FD0800699
:1019E00006D5880604D5216E002901D020468847F7
:1019F000E06F21688968490601D4000724D5204694
:101A000001F0D8F920688168490619D5816840221B
:101A100091438160E06E002812D020498163E06E1E
:101A2000FEF7ECFE00280AD0E06E816B06E085062A
:101A300010D58D060ED5216E1CE020468847F8BDD6
:101A40002046FFF78EFFF8BD2046FFF78AFF0020F3
:101A5000E067F8BDC50208D55B0206D50120000588
:101A600010622046FFF73FFFF8BD030605D50B06C1
:101A700003D5616E0029E0D1F8BD4006FCD54806CB
:101A8000FAD51368204640218B43136020216167FB
:101A90000021616600F0C5F9F8BD0000112D0008B5
:101AA00010B5040003D0606F002802D007E00120C9
:101AB00010BD002170200155204600F027F8242099
:101AC000606720680168490849000160204601F00C
:101AD00089F90128ECD0606A002802D0204601F084
:101AE00081F8206841680922D20291434160206850
:101AF00081682A2291438160206801680122114394
:101B00000160204601F0D4F810BD0000F0B587B0A8
:101B1000064614216846FEF738FB584B326800240D
:101B200057490227032004259A4226D18A6B2B04A9
:101B30001A438A63CA6A3A43CA62C96A039039403F
:101B400005918102009101970495029469464D48E0
:101B5000FEF75AFF4D4D4C482860AC600520EC6004
:101B600068606C61AC61EC6180202C622861284661
:101B70003CE0F566AE6207B0F0BD454B9A423CD101
:101B80004A6B01239B031A434A63CA6A01231A431F
:101B9000CA62C96A0746194005915902009102219B
:101BA00001AA049592C2052069460007FEF72CFFA2
:101BB0000120800200900220019001200290052067
:101BC0006946039704950007FEF71EFF2F4D2E4828
:101BD0004835AC603C38EC6081C5EC602C616C61D0
:101BE0008020AC61A86028460838083DFEF782FED8
:101BF0000028BED0FEF750FDBBE7264B9A42BAD173
:101C00008A6B01235B041A438A63CA6A01231A435D
:101C1000CA62C96A03201940009503900591052006
:101C200001970495029469460007FEF7EDFE08202F
:101C3000009001200290032003900520019769463F
:101C400004950007FEF7E0FE104F0F489037BC6088
:101C50001438FC6021C7FC603C617C618020BC6161
:101C6000B86038460838083FFEF744FE002801D027
:101C7000FEF712FDF766BE627DE7000000480040F7
:101C800000100240000400506C000240D801002007
:101C90000038014000440040F8B50446806F202819
:101CA0004DD100290BD0002A09D00123A0681B03C5
:101CB000984206D12069002803D1C80701D001202D
:101CC000F8BD25466035287C012838D001202874CD
:101CD0005820616502530026E6672220A067E06E67
:101CE000002819D01749C162E16E17480863E16EF8
:101CF00016484863E06E13468663676D21683A466E
:101D00002431E06EFEF73EFE002805D01020E0678B
:101D10002E7420206067D2E72E7420680168FF22AD
:101D20000132114301602068816801221143816002
:101D3000206881684022114381600020F8BD0220A4
:101D4000F8BD00006D2D0008AB2D0008252D000802
:101D500070477047FFB50446406F83B017460D4685
:101D600020285CD1002D0AD0002F08D0A168C00126
:101D7000814207D12069002804D1E80702D0012060
:101D800007B0F0BD204660300290007C012846D0AC
:101D90000298012101740020E06721206067FEF7AE
:101DA000F5FE264640360190378277820120A168F1
:101DB0000003814202D12069002802D02F4600256D
:101DC00011E000270FE000228021204601F01EF9DB
:101DD000002815D1002F15D02168387888627F1C23
:101DE000708A401E7082708A019B002806980090BD
:101DF000E9D100224021204601F008F9002808D04E
:101E00000320BDE728882168C005C00D8862AD1C8D
:101E1000E6E720206067029900200874B0E70220FE
:101E2000AEE77047FEE700007CB50546EF20694647
:101E30000870012048701248124E0068020E8A7025
:101E4000020CCA70020A0A714871072088710024C6
:101E5000CC7134700DE00120FEF7C8FD31783046BA
:101E6000012906D104706946B01DFEF799F90028D2
:101E700004D16D1E2D042D0CEDD100207CBD000081
:101E8000100000204C07002010B50E4C2068C169DE
:101E9000C943C90612D4102101622046FFF724FD70
:101EA000E06E00684068012292020749101A4880DB
:101EB000012008702046891DFFF7EEFE0148FFF75C
:101EC00051FD10BD580000204C070020F8B5012638
:101ED00005270446F6023F07002231463846FEF742
:101EE0004FFE0520FEF782FDE007C00F0025002809
:101EF0000ED0012231463846FEF742FE3C2001F06A
:101F00006DFB002231463846FEF73AFE14200DE004
:101F1000012231463846FEF733FE142001F05EFB05
:101F2000002231463846FEF72BFE3C2001F056FBDE
:101F30006408E0076D1CC00FEDB2082DD7D3012255
:101F400031463846FEF71CFEF8BD10B5412801D0D9
:101F5000FF2010BD08210846FEF7EFF93D211120B2
:101F600001F0BEF88621172001F0BAF87F21262063
:101F700001F0B6F81E212D2001F0B2F800212C202E
:101F800001F0AEF88D212A2001F0AAF83E212B2085
:101F900001F0A6F80120FEF729FD00F043FA002029
:101FA00010BD000008B50448016B01221143016314
:101FB000006B1040009008BD00100240F0B587B0E3
:101FC00014216846FEF7E1F83148C26A04210A4349
:101FD000C262C26A0A400592C26A80210A43C26292
:101FE000C26A0A400592C16A01252943C162C16AD9
:101FF00029400591C26A02210A43C262C06A4E03A7
:1020000008400590002231462248FEF7B9FD052020
:10201000002221490007FEF7B3FD0520012212210D
:102020000007FEF7ADFD1D4F012239461C48FEF7A3
:10203000A7FD6803002400900194694602941548A6
:10204000FEF7E2FC0294694612480096019503945B
:10205000FEF7DAFC10480294123000900520694621
:10206000019503940007FEF7CFFC029469460C48E3
:10207000009701950394FEF7C7FC28020090052005
:102080006946019502940007FEF7BEFC07B0F0BD5B
:1020900000100240000800500118000018700000F5
:1020A0000004005010B50C480A490160E1214902C2
:1020B000416000218160C160016181610C22016287
:1020C00042614162FFF7ECFC002801D0FEF7E4FA20
:1020D00010BD0000004800405800002010B500224C
:1020E00011461D20FEF7C2FD1D20FEF7B5FD0022A2
:1020F00011461C20FEF7BAFD1C20FEF7ADFD0022A4
:1021000011461B20FEF7B2FD1B20FEF7A5FD0022A5
:1021100011460A20FEF7AAFD0A20FEF79DFD0022C7
:1021200011460B20FEF7A2FD0B20FEF795FD10BD1A
:1021300010B50F480D490160FF21053141600021B4
:102140008160C160012201615202826141610162CC
:1021500020224162C26181620721C162FFF794F9C6
:10216000002801D0FEF798FA10BD000000300140B1
:10217000B002002010B50C480A490160E121490273
:10218000416000218160C16001618161C1610C22F7
:10219000016242614162FFF783FC002801D0FEF733
:1021A0007BFA10BD00380140D800002010B50C4863
:1021B0000A490160E1214902416000218160C1605A
:1021C00001618161C1610C22016242614162FFF7DC
:1021D00067FC002801D0FEF75FFA10BD0044004004
:1021E0005801002001B5034B012269460248FFF760
:1021F000B1FD08BDFFFF00005800002010B5FEF73C
:1022000029FF10BD8307FF22DB0E9A408907090EC4
:10221000994000280BDA0007000F083883080848A7
:102220009B001818C36993430B43C361704783082D
:1022300004489B001B1818689043084318607047B7
:1022400000ED00E000E400E070B5044600F0C9FBDA
:1022500000F0A8FB0120FFF7C5FF0020FFF7C2FF39
:102260000020FFF7BFFFC820FEF7C0FB0F4908782A
:1022700001280AD18A790020EF2A05D1CA79012ADA
:1022800002D10A7B072A02D00870012070BD0B7AA8
:10229000CA7A1B06D2184B7A8D7A1B042D025B1961
:1022A000D21822600870002070BD00004C0700208A
:1022B00070B5044600F095FB00F074FB0120FFF7B9
:1022C00091FF032000F095FB0F20FFF78BFF1320F9
:1022D00000F07EFB7D20C000FFF7A6FD00281AD08D
:1022E000817BC27B09028918457A89B22180427CB0
:1022F000A270837C427D1B06D218C37C067D1B0422
:1023000036029B19D2186260C27D2272407E6072D2
:10231000002D0AD000E0FF252846FEF79BF8014675
:102320000AA000F0F5FE284670BD0AA000F0F0FEFD
:10233000A1780EA000F0ECFE10A0616800F0E8FEAD
:10234000617A4B20C00141430FA0EAE70D0A2573D3
:10235000000000000D0AC4A3BFE9D7EEB4F3D6B85D
:10236000CEC6C8DDC1BF3D25640D0A000D0AB6D436
:10237000B1C8B5C8BCB63D25640D0A000D0AB5D874
:10238000D6B73D25780D0A000D0AB2A8CCD8C2CA2E
:102390003D25640D0A00000070B5054600F021FBE4
:1023A00000F000FB0120FFF71DFF032000F021FBE0
:1023B0001D20FFF717FF212000F00AFB7D20000100
:1023C000FFF732FD002808D0817AC27A0902447AE8
:1023D00089182980002C0AD000E0FF242046FEF74F
:1023E00039F8014605A000F093FE204670BD817AC1
:1023F000C07A0902091803A0F5E700000D0A257349
:10240000000000000D0AD3D0D0A7D6B8CEC6B8F6CB
:10241000CAFD3D256400000010B503211420FDF71E
:102420008CFF10BD10B5142000F0F9F9800703D11E
:102430000321142000F0E7FA10BD70B5064608210C
:1024400088B000240846FDF778FF00210D2000F039
:1024500047FE80210E20FDF770FF93216846017131
:102460002021417106A801AB0090022219460C20E0
:1024700000F03FF805000DD1002101A8425C725424
:10248000425C491C5440C9B20429F7D3405CA042C5
:1024900000D0FE2580210E2000F0B5FA284608B0B5
:1024A00070BD30B587B06C4620716171002001A904
:1024B000145C0D18401CC0B2AC700628F8D3002084
:1024C0001A5C0C18401CC0B222720628F8D306A869
:1024D00000900B460C220E2000F00BF8040004D1F3
:1024E000082000F09CF9000700D4FE24204607B025
:1024F00030BDFFB581B000240198FE261746009438
:102500000C2804D00E2805D11224102001E07724D5
:1025100030200090214680200143022000F0E0FDA1
:1025200080210420FDF709FF0021012000F0D8FDE3
:1025300080210A2000F067FA002505E00298415D3D
:10254000092000F0CDFD6D1CBD42F7D3012001999B
:1025500000F0C6FD01980C2803D180210D2000F069
:1025600052FA4B27FF00042000F059F905467F1E60
:1025700004D0E80702D100980542F4D080210D2054
:10258000FDF7DBFE002F0FD0062000F048F91B21DD
:10259000084208D100262540E80700D0FF26019810
:1025A0000C280CD000E0FE2680210C2000F02BFA35
:1025B0000021012000F094FD304605B0F0BD0A2056
:1025C00000F02DF904460C2000F029F94007400FD7
:1025D00003D0E1000839091800E0E1000A98002C56
:1025E000016004D0122C04D91224002503E0012438
:1025F000FBE7002506E0092000F011F901460498E8
:1026000041556D1CA542F6D3CEE730B587B00D46D7
:10261000302269460A71487101AC02212046A21C91
:10262000FDF75AFE06A801AB0090042219460C20C3
:10263000FFF75FFF002802D10699902902D0FE2003
:1026400007B030BD0023E15CE9545B1CDBB2102B0A
:10265000F9D3F5E730B50C460546082187B00846A2
:10266000FDF76BFE07210D2000F03AFD0321142039
:1026700000F0C9F96846057106A801AB0090012277
:1026800019460C20FFF735FF002802D106991029C2
:1026900002D0FE2007B030BD694609792170694635
:1026A00049796170F6E7000070B501221D4D940371
:1026B00021462846FEF764FA0A20FEF797F9002221
:1026C00021462846FEF75CFA0A20FEF78FF9012220
:1026D00021462846FEF754FA0A20FEF787F90F2113
:1026E000012000F0FDFC272000F099F88828FAD19D
:1026F0003D21112000F0F4FC1E212D2000F0F0FC03
:1027000000212C2000F0ECFC8D212A2000F0E8FCB8
:102710003E212B2000F0E4FC4021152000F0E0FCDD
:10272000002070BD0008005010B588B093226946A3
:102730000A7170224A7100228A72114601AA435C12
:102740005418A3706C46A37A445C491C63406C46E1
:10275000C9B2A3720429F2D3072101A8D21DFDF743
:10276000BBFD08210846FDF7E8FD06A801AB009077
:10277000092219460C20FFF7BCFE002802D1069959
:10278000182900D0FE2008B010BD704770B51C4C51
:1027900000256078030000F0CBFC14310B0D0F1105
:1027A000132E1517191B1D1F21232527292B2D310A
:1027B000012020E002201EE003201CE004201AE09B
:1027C000052018E0072016E0082014E0092012E098
:1027D0000A2010E00B200EE00C200CE00D200AE097
:1027E0000E2008E00F2006E0102004E0112002E097
:1027F000122000E01320FFF769FB657070BD000038
:102800000000002010B501F085F8FFF74DFFFFF73D
:1028100003FEFFF707FE4120FFF797FB10BD70B5E1
:10282000052504462D07002210212846FEF7A8F9A9
:10283000A006400E803000F097F800F029F804461A
:10284000012210212846FEF79BF9204670BD38B5BD
:1028500004464068FF2305332025984204D10092A6
:102860000B460022802107E05120005D05280DD194
:1028700000920B4600220121204600F02FF800288C
:1028800004D0606D28436065032038BD002038BD4A
:102890000EB500206946087208480090012301AA7D
:1028A00002A90748FEF75CFE002803D005A000F04F
:1028B0002FFC0EBD684600790EBD0000FFFF000032
:1028C000B00200207370692073656E6420726561C8
:1028D00064206661696C0D0A00000000F8B51D46B1
:1028E00017460E46044609E0681C07D0FEF74EF96D
:1028F0000699401AA8420BD2002D09D020688168A1
:10290000304688432ED00020B842EDD10020F8BDDB
:1029100020684168E022914341606068C11FFD3931
:102920000CD10121A068C903884202D04911884214
:1029300004D1206801684022914301600120A16A0E
:102940004003814207D121680A6882430A602168F6
:102950000A6802430A600120403460740020207439
:102960000320F8BD0120CFE701B582B006480090F2
:10297000012301AA02A90548FEF7F2FD002802D0B2
:1029800003A000F0C5FB0EBDFFFF0000B002002059
:102990007370692073656E64206661696C0D0A004E
:1029A0007047000010B5094C2068000EFFF71AFCB4
:1029B00020680002000EFFF715FC20880004000EBE
:1029C000FFF710FC2078FFF70DFC10BD1000002071
:1029D00010B50446000AFFF705FCE0B2FFF702FC61
:1029E00010BD10B5EF20FFF7FDFB0120FFF7FAFB4C
:1029F00010BD10B504460004000EFFF7F3FBE0B273
:102A0000FFF7F0FB10BD70B50D460446FFF707FF5A
:102A100028430146204600F063FB70BD704700006C
:102A200010B59AB034216846FDF7AFFB142114A805
:102A3000FDF7ABFB1C210DA8FDF7A7FB18480168AB
:102A40000322D2029143C214891801600920009028
:102A500001210591500101900A9003200221800478
:102A60000B9048050C9009916846FEF7FFFA0F207D
:102A700014900024032015901694179401211894A3
:102A800014A8FEF7ABF907200D900F941094119441
:102A90000DA8FEF7EFF8FEF757FA1AB010BD0000C8
:102AA0000070004010480168821511430160C16840
:102AB0000E4A1140C16001680D4A114001608168F1
:102AC0004908490081600168012292049143016034
:102AD000C168FD2212049143C160002101610549D2
:102AE000C003886070470000001002400C40FF885F
:102AF000F6FFF6FE00ED00E005480168002906D06B
:102B00000168491E016003480168491C0160704763
:102B1000080000200400002010B50248FEF744FE23
:102B200010BD00000803002070B5026801239B0758
:102B3000114C124D984203D0A04201D0A84203D1BB
:102B40007026B2434E683243984203D0A04201D06F
:102B5000A84204D103231B029A43CB681A43802363
:102B60009A430B691A4302608A68C26209688162EB
:102B70000121416170BD00000008014000140140C6
:102B800010B50D4C207800280DD001280CD002285B
:102B900009D10A4800F0CEFE002804D00A20607057
:102BA00007490020087010BD00F06CFD0128FAD123
:102BB0000220207010BD0000000000207E0F0020C9
:102BC00032000020064800220178012906D1416820
:102BD000491C41603C2902D90221017042607047C2
:102BE0004000002010B5818CC90707D001684A68F1
:102BF00001235B049A43836A1A434A60818C8907E4
:102C000007D501684A6801231B049A43C36A1A4323
:102C10004A60818C490707D501684A6801239B04F3
:102C20009A43036B1A434A60818C090707D50168F0
:102C30004A680123DB039A43436B1A434A60818C41
:102C4000C90607D50268916801231B039943836B6A
:102C500019439160818C890607D501688A68012330
:102C60005B039A43C36B1A438A60818C490612D571
:102C700003685A6801210905046C8A4322435A609B
:102C8000026C8A4207D10268516803235B059943AD
:102C9000436C19435160818C090607D501684A6865
:102CA0000123DB04806C9A4302434A6010BD00009C
:102CB000F8B500260446C667FDF768FF054620689C
:102CC0000068124F000709D501212B460022490553
:102CD0002046009700F09AF900280DD1206800687E
:102CE00040070BD501212B4600228905204600977D
:102CF00000F08CF9002801D00320F8BD2020606787
:102D0000A067603426740020F8BD0000FFFFFF01BB
:102D100010B5806A0022014640314A834A82FEF79C
:102D200020FE10BD70B5846A606FA56F2168896848
:102D300000260906002906DA212804D1522006536C
:102D4000204600F047F820688068400606D5222D0E
:102D500004D15A200653204600F02CF8E06F1021D1
:102D60000843E0672046FEF7FCFD70BD10B5014644
:102D70000968806A0968890614D400225A210A5217
:102D800001680A68FF2301339A430A6001688A6870
:102D9000520852008A6001688A6840239A438A6018
:102DA00020218167FEF7D4FF10BD10B5806AFEF7C1
:102DB000D0FF10BD01680A68FF2321339A430A60DF
:102DC00001688A68520852008A60202181670021C8
:102DD0000166704701680A68C0239A430A6020218F
:102DE00041677047F8B504462669A268E76932432F
:102DF0006669102000253E432368324378491E68E7
:102E0000784F3E4016431E6023685A6803263603F7
:102E1000B243E66832435A602368A2698B4201D00C
:102E2000266A32439E680B273F02BE4316439E60CC
:102E30006D4E23686D4AB3420CD1D2689207920F4F
:102E400006D0012A38D0022A34D0032A20D11EE02D
:102E500001201DE0664EB3420AD1D2680C263240F2
:102E600026D0042A28D0082A24D00C2A10D10EE01B
:102E70008B420DD1D66803229202164018D001224F
:102E80009202B61A18D0B61A14D0964200D1082071
:102E9000564A0126403A574FF6038B4236D1002856
:102EA0000CD002280DD0042812D008281FD11CE015
:102EB0000020EDE70220EBE70420E9E7FEF76EF8DB
:102EC00008E01068C00601D5384605E04A4803E02E
:102ED000FEF784F8002873D06268510051188142CF
:102EE00005D81103814202D303E03046F4E70125FF
:102EF00066E0010E06025008002330185941FDF724
:102F00000DF903210902411A3C4A55E0E169B14239
:102F100032D1030000F00CF909070A0D0625060658
:102F2000062B0600E3E7FEF739F81CE0FEF746F84B
:102F300019E010686168C00602D54808304A01E00F
:102F4000304A48088018FDF7D3F880B201462E4A6F
:102F500010399142CBD8511C01400007400F084363
:102F60002CE0FEF73BF8616840004A08EAE7616838
:102F7000012248081204E5E7030000F0D9F8090728
:102F80000A0D06260606062C0600B0E7FEF706F830
:102F90001DE0FEF713F81AE010686168C00602D55C
:102FA0004808C01902E014484A081018FDF7A0F8B4
:102FB00080B20146144A1039914298D82168C860FD
:102FC0000020206660662846F8BDFEF707F86168B5
:102FD0004A088018EAE7616848088019E6E70000B7
:102FE00000480040F369FFEF003801404010024004
:102FF0000044004000093D000024F400FFFC0F00E5
:1030000000127A000048E801EFFF0000FFB581B030
:1030100017460E4604460A9D09E0681C07D0FDF7D6
:10302000B5FD0499401AA8420CD8002D0AD020689A
:10303000C1693046884318D00020B842EDD0002046
:1030400005B0F0BD20680168FF22A1329143016004
:103050002068816849084900816020206067A06776
:103060000020603420740320EAE70120E5E7000037
:1030700010B50248FEF776FC10BD0000D800002015
:1030800010B5FDF7C7F90248FEF76CFC10BD000053
:103090005801002010B5FFF7B5FBFDF737FBFDF732
:1030A000D9F802490020086010BD00000800002087
:1030B00008B569465220FFF7CDFA00280BD06946C3
:1030C0005220FFF7C7FA002805D069465220FFF7C3
:1030D000C1FA002803D10A20FDF788FCE9E708BD02
:1030E00070B505250E4604462D07002210212846FE
:1030F000FDF746FDA006400EFFF736FC3046FFF711
:1031000033FC012210212846FDF73AFD70BD000076
:103110000FB410B503A9044B044A029800F024F838
:1031200010BC08BC04B018478D38000854000020BB
:1031300030B47446641E2578641CAB4200D21D4630
:10314000635D5B00E31830BC184702E008C8121F3B
:1031500008C1002AFAD170477047002001E001C180
:10316000121F002AFBD17047FFB591B00F460546EC
:10317000002606E025280AD0149A139990476D1C62
:10318000761C28780028F5D1304615B0F0BD002413
:1031900000940121F34A029400E004436D1C2B7853
:1031A0000846203B98401042F7D128782A280ED0B4
:1031B000022128780246303A092A15D8009A0A23B3
:1031C0005A43303A80180C436D1C0090F1E701CF50
:1031D0000090002805DA0120400304430098404293
:1031E0000090022004436D1C28782E2815D104205D
:1031F000044368786D1C2A280AD101CF6D1C029007
:103200000BE002990A225143303940186D1C02909C
:103210002878014630390929F3D928786C2810D04C
:1032200006DC4C281AD068280ED06A2817D104E092
:10323000742813D07A2812D110E0012040050443ED
:103240000CE00121090501E0032109050C4369781F
:10325000814203D10120000524186D1C6D1C2878C3
:1032600003906E281ED00CDC632831D004DC0028CB
:103270008AD0582811D1B2E064287BD069280CD1BB
:1032800078E073282DD004DC6F2870D0702804D12A
:10329000A7E075286CD078286BD0149A13999047C2
:1032A000761C62E06002400F022807D003280AD093
:1032B000042838680AD006603F1D56E03868F117C8
:1032C00006604160F8E738680680F5E70670F3E7C6
:1032D0003878694608740020487404A803900120D7
:1032E00003E0386803900020C0433F1D61070FD5FD
:1032F000002101E00199491C029A0191914213DADF
:103300008142F7DB019A0399895C0029F2D10BE035
:10331000002101E00199491C01918142FADB019AE7
:103320000399895C0029F5D101990098139A401AF4
:1033300000902146149B00F03BF901998019461832
:1033400007E0039803990078491C0391149A139994
:1033500090470198401E0190401CF2D12146149BD9
:10336000139A009800F014F986196D1C09E741E0E2
:1033700033E034E00A200021049005916002410FFF
:10338000022905D001CFC2179446032905D007E0D2
:10339000FF1DFF08FF0003CF06E000B2C2179446EE
:1033A000042902D140B2C1178C46002261469445DF
:1033B00006DA0A460021404291418C462D2102E066
:1033C000210504D52B216A461176012103E0E1078E
:1033D00001D02021F7E7019154E00A200BE01020F2
:1033E00009E01020049000210420044308200591E6
:1033F000029003E008200021059104906002410F33
:10340000022905D001CF00229446032906D006E008
:10341000FF1DFF08FF0003CF8C4603E080B20429A4
:1034200000D1C0B20021019121072BD50399702949
:1034300006D0049A1021059B4A401A4305D00EE09D
:1034400040216A461176012108E06146014306D019
:1034500030216A4611760399517602210191049A2E
:103460000821059B4A401A430CD16146014301D112
:10347000610707D530216A46117601210191029931
:10348000491E02910399582904D037A103910FA92D
:103490000F910DE039A1F9E76146059B049AFCF70D
:1034A0003DFE039B8C469B5C0F9A521E0F9213703D
:1034B00061460143F0D10F9807A9081A2030039004
:1034C000600704D5012000048443029801E0012034
:1034D00002900399884201DD401A00E00020411863
:1034E0000290019809180098401A0090E00306D451
:1034F0002146149B139A009800F05AF88619002070
:10350000049008E006A9085C149A1399904704985F
:10351000401C761C049001998842F3DBE0030CD533
:103520002146149B139A009800F042F8861904E093
:10353000149A302013999047761C0299481E0290E5
:103540000029F5DC08E00F980F990078491C0F91CD
:10355000149A13999047761C0399481E03900029EA
:10356000F1DCFBE6092801003031323334353637DF
:1035700038396162636465660000000030313233BF
:10358000343536373839414243444546000000005F
:10359000F8B5044600251E461746880404D405E005
:1035A00039462020B0476D1C641EF9D52846F8BD69
:1035B000FFB50446002581B01E46C80301D530275B
:1035C00000E02027880404D505E038460399B04779
:1035D0006D1C641EF9D5284605B0F0BD00218001A0
:1035E00001E0491C89B28842FBDC7047F0B59C467B
:1035F0000024069F059E134625467A5D0255641CED
:103600006D1CADB2A4B2082DF7D31D4F00257A5D15
:103610000255641C6D1CADB2A4B20C2DF7D3FE256F
:103620000555641CA4B2EF270755641CA4B20A78A0
:103630000255641CA2B249788154521C91B20622F0
:103640004254491C89B24354491C89B2320A42543B
:10365000491C89B24654491C89B2002206E06346DF
:103660009C5C4454491C521C89B292B2B242F6D3BB
:103670004754491C89B24554491CC8B2F0BD0000EA
:1036800048000020F0B56E4E87B0002003903278DD
:103690006C486D4C04902046083037466949103715
:1036A000059038780C3906900B46207870330293D9
:1036B00000251300FFF73CFD0604214A647F9EC0ED
:1036C000604801226C38C2800D735D490092083158
:1036D000019101461A39049B0298FFF787FF0146C2
:1036E000029800F0A3F959A0FFF712FD01203870ED
:1036F0002570658030707D609EE00699022900D1BA
:1037000035700128F8D1002708E0E019027F027225
:10371000394651A0FFF7FCFC7F1CBFB2608814380B
:10372000B842F2DC207B06287FD1607B01287CD167
:103730004448217C86380170627C42704DA0FFF7BE
:10374000E7FC3F4810300570022032E03D4801227E
:103750006C38C2800A733A490092083101910146DF
:1037600002221A39049B0298FFF740FF0146029893
:1037700000F05CF90120387025706580032037E087
:103780000699022900D13170012855D1002004E0AA
:1037900021180A7F401C0A72C0B261881439814224
:1037A000F6DC207B062840D1607B02283DD13D70AD
:1037B0000420307039E0234802226C38C2801A3865
:1037C00003780B73407848731D481E4908300092F7
:1037D000019005228639049B0298FFF707FF0146F6
:1037E000029800F023F901203870257065800520CB
:1037F000307021E00699022901D10421317001289D
:103800001AD1002004E021180A7F401C0A72C0B2BD
:10381000618814398142F6DC207B062805D1607B63
:10382000052802D13D70012003902570658001219B
:1038300089020598FCF7A9FC039807B0F0BD0000C9
:103840003000002002100020440300206E65742028
:10385000696E0D0A0000000065746865725F73741C
:103860002E52585F70446174615B25645D3D253064
:1038700032782E006765742064657620696420259F
:103880003032782D253032780D0A000013B5044B04
:10389000012269460348FEF75DFA00981CBD00004E
:1038A000FFFF0000D8000020FCF7F8FCFFF7F2FB58
:1038B0007D25174CED00FEF769FF64212068FCF7B9
:1038C00017FC002901D1FCF729FF0A212068FCF729
:1038D0000FFC022901D1FCF71FFF0A212068FCF729
:1038E00007FC052901D1FCF7D9FE32212068FCF73D
:1038F000FFFB012901D1FFF743F929462068FCF7B6
:10390000F7FB012901D1FFF75DF9FFF7F5F8D2E7E1
:103910000400002010B50122052011460007FDF724
:103920002FF910BD10B50520002202210007FDF778
:1039300027F910BDF8B5064600252C495220FEF7A0
:1039400089FE002850D129480178042904D0022991
:1039500007D008290AD00FE0407800280CD124A015
:1039600008E04078002807D125A003E0407800282F
:1039700002D127A0FFF7CCFB1C48801CFEF75DFDA1
:10398000002831D119480021801C425C7254491C26
:10399000C9B20429F9D31548801CFEF7C5FE0028DA
:1039A00022D1124C0220641E2070E31C0B211A1D30
:1039B0006020FEF776FD002816D120781849800691
:1039C000000EFEF722FE00280ED10125144F002420
:1039D000385D3055395D13A0FFF79AFB641CE4B2E3
:1039E000102CF5D3FFF764FB2846F8BD210000201A
:1039F000BFA8B5C4C0E0D0CD3A5335300D0A0000A1
:103A0000BFA8B5C4C0E0D0CD3A5337300D0A00008E
:103A1000BFA8B5C4C0E0D0CD3A580D0A00000000E0
:103A20006C0F002025303278000000000A4610B5E7
:103A300000230146DB430248FEF78CF910BD00006D
:103A400058010020000000000000000001020304F3
:103A500006070809030406080C10182030000000AF
:103A60000001020304000000883A00080000002062
:103A7000580000004A310008E03A000858000020D1
:103A8000781800005A310008010000000000000012
:103A90000000000000002000FFFFFFFF000000000A
:103AA000000000000000000000000000000000FF17
:103AB000FFFFFFFFFF00000000000000000000000B
:103AC00000000000000000010000000000000000F5
:103AD000AA000000000000000000005800000000E4
:04000005080000C12E
:00000001FF
