:020000040800F2
:10000000201E0020D5000008392B0008B926000862
:1000100000000000000000000000000000000000E0
:10002000000000000000000000000000FD35000896
:100030000000000000000000E7330008E53600087B
:10004000E7000008E7000008E7000008E7000008F4
:10005000E7000008E7000008E7000008E7000008E4
:1000600000000000E70000084104000851040008F7
:10007000E7000008E70000080000000069380008F9
:1000800000000000E7000008000000000000000081
:10009000E700000800000000E7000008E700000893
:1000A000E7000008E7000008E7000008613F0008DB
:1000B000713F0008792700080000000000000000E0
:1000C0000348854600F0C2F8004800470949000887
:1000D000201E00200448804704480047FEE7FEE752
:1000E000FEE7FEE7FEE7FEE76D370008C100000807
:1000F00030B50B46014600202022012409E00D46C0
:10010000D5409D4205D31D469540491B2546954047
:1001100040191546521E002DF1DC30BDF0B51FB45C
:100120000646002082B005464024019100901BE065
:10013000019922460F46304600F077F8049A059B55
:10014000801A994110D310461946224600F05DF8F6
:10015000361A8F410197224601200021009F00F0AE
:1001600054F838184D4100902046641E0028DFDC0A
:10017000019B00982946324607B0F0BD03460B4369
:100180009B0703D009E008C9121F08C0042AFAD24D
:1001900003E00B780370401C491C521EF9D27047D3
:1001A000D2B201E00270401C491EFBD2704700220F
:1001B000F6E710B513460A4604461946FFF7F0FF66
:1001C000204610BD30B505462A460B4610781C78EF
:1001D000521C5B1C002801D0A042F7D0002C03D099
:1001E000002802D06D1CEFE7284630BD30B505462B
:1001F0000020034600E05B1C934205D2EC5CC85C27
:10020000201A01D1002CF6D130BD10B5202A04DB14
:100210000146203A9140002010BD914020239C1AB5
:100220000346E3401943904010BD10B5202A04DB7B
:100230000846203AD040002110BD0B46D340D040A4
:100240002024A21A91400843194610BD064C0125EE
:10025000064E05E0E36807CC2B430C3C984710346E
:10026000B442F7D3FFF730FF744B0008944B0008FB
:1002700010B506480068016810221143016032225F
:100280000349024802F052F910BD0000A40000200A
:10029000B607002010B504F04BFB7D20C00000F035
:1002A000C7FEFFF7E5FF084802F048FD002802D02E
:1002B00006A003F01FFF084802F0B8FD0248801FA7
:1002C00002F088FE10BD000048000020CED5CAD63E
:1002D000CAA7B0DC0D0A0000C40B0020FFB585B032
:1002E00006461F46144600251BA0069903F002FF90
:1002F000FF21F0316A461180304603941FE0A17956
:1003000068460172217A418119A003F0F3FE684624
:10031000007A022801D008280DD168464289039846
:10032000214640190931921EFFF728FF684640898F
:10033000AD1E401985B268464089093400196946E6
:10034000FFF740FF0400DAD130460699FFF72FFF90
:100350003D80002009B0F0BD41533830365F45780C
:100360007472616374436861722025640D0A000031
:100370007531364C656E6774682025640D0A00007F
:1003800010B501F00FF803F0AFF902F097FA02F0A0
:1003900089FA02F06BFB02F08BFB02F0A5FB02F086
:1003A00009FB054800F0EEFF02F01AFB02F034FBF7
:1003B00002A003F09FFE10BD94000020696E6974D6
:1003C0002E2E2E0D0A000000F8B50E4607461546E3
:1003D0000421052000F029F80021012003F072FE1D
:1003E00080210A2003F060F9002405E0395D09202E
:1003F00003F068FE641CE4B2B442F7D30321012089
:1004000003F060FEFF24052003F037F8641E240685
:10041000240E01D04007F6D5222003F02EF82870D4
:10042000212003F02AF86870F8BD70B50C46054627
:1004300003F023F8A0430146284603F043FE70BDB5
:1004400010B5024800F024FD10BD00006C02002031
:1004500010B5034800F01CFD024800F019FD10BD66
:10046000B40200202402002030B5446C1C252C402E
:100470000125A540046C6560046863608368102BE7
:10048000036803D099600068C26030BD9A6000685C
:10049000C16030BD10B506480068016810221143E4
:1004A00001607D22D2000349014802F03FF810BDEF
:1004B000A4010020B003002070B5114C01221021CE
:1004C000204600F020FF7D20C00000F0B1FD00229A
:1004D0001021204600F017FF7D252D01284600F051
:1004E000A7FD01221021204600F00DFF284600F054
:1004F0009FFD284600F09CFD284600F099FD70BD48
:100500000004005010B50D4C2068C169C943C906EC
:1005100013D410210162204601F030FEE06E006825
:10052000406801229202111A0548418001210170A0
:1005300001460831204601F0F9FF10BDA40100205A
:10054000A803002000B5030003F0E4FD21121416F7
:10055000181A1C1E20222426283C3C3C3C282A3CFD
:100560003C3C2C3C3C2E303234363C3C383A3C004F
:1005700015A000BD15A000BD18A000BD1CA000BDA9
:1005800020A000BD27A000BD2EA000BD34A000BD4E
:1005900041A000BD43A000BD46A000BD49A000BDD4
:1005A0004CA000BD4FA000BD57A000BD5AA000BD8B
:1005B0005CA000BD5FA000BD63A000BD67A000BD42
:1005C00069A000BD6BA000BD4F4B0000CAFDBEDDA1
:1005D000B0FCBDD3CAD5B4EDCEF30000B4ABB8D0F7
:1005E000C6F7C9CFC3BBD3D0CAD6D6B80000000067
:1005F000C2BCC8EBD6B8CEC6CDBCCFF1CAA7B0DC62
:1006000000000000D6B8CEC6CDBCCFF1CCABB8C987
:10061000A1A2CCABB5ADB6F8C9FAB2BBB3C9CCD8C0
:10062000D5F70000D6B8CEC6CDBCCFF1CCABCAAAA8
:10063000A1A2CCABBAFDB6F8C9FAB2BBB3C9CCD84B
:10064000D5F70000D6B8CEC6CDBCCFF1CCABC2D268
:10065000B6F8C9FAB2BBB3C9CCD8D5F700000000D0
:10066000D6B8CEC6CDBCCFF1D5FDB3A3A3ACB5AB48
:10067000CCD8D5F7B5E3CCABC9D9A3A8BBF2C3E6B8
:10068000BBFDCCABD0A1A3A9B6F8C9FAB2BBB3C924
:10069000CCD8D5F700000000D6B8CEC6B2BBC6A5F0
:1006A000C5E40000C3BBCBD1CBF7B5BDD6B8CEC631
:1006B00000000000CCD8D5F7BACFB2A2CAA7B0DCF0
:1006C00000000000C9BEB3FDC4A3B0E5CAA7B0DCFA
:1006D00000000000C7E5BFD5D6B8CEC6BFE2CAA7A6
:1006E000B0DC0000BBBAB3E5C7F8C4DAC3BBD3D0F3
:1006F000D3D0D0A7D4ADCABCCDBCB6F8C9FAB2BB72
:10070000B3C9CDBCCFF10000B6C1D0B420464C4136
:10071000534820B3F6B4ED00CEB4B6A8D2E5B4ED9C
:10072000CEF30000CEDED0A7BCC4B4E6C6F7BAC58F
:1007300000000000BCC4B4E6C6F7C9E8B6A8C4DA35
:10074000C8DDB4EDCEF30000BCC7CAC2B1BED2B39F
:10075000C2EBD6B8B6A8B4EDCEF30000D6B8CEC67C
:10076000BFE2C2FA00000000B5D8D6B7B4EDCEF3B0
:1007700000000000C4A3BFE9B7B5BBD8C8B7C8CF55
:10078000C2EBD3D0CEF3000070470000F8B5594C4F
:10079000207801287ED1584D287802287AD1204629
:1007A000217F083000270090FE292BD1607FEF28A1
:1007B000FBD1524EA07F31788842F6D1E07F71782C
:1007C0008842F2D12046203001780629EDD14178C7
:1007D0000079212930D008DC09290FD0102917D041
:1007E00012291CD020297DD11CE0222938D02329B0
:1007F0005BD0302960D0402974D15AE0012802D062
:10080000022028726EE03EA003F074FC1120F8E78D
:10081000012867D13DA003F06DFC0520F1E7AF7121
:10082000EF715FE00120687104F082F8C82000F0E9
:10083000FFFB0320687055E00120687104F078F830
:10084000C82000F0F5FB0220687000202118321843
:100850002031401C097980B291760228F6D341E01C
:100860002EA003F047FC0120687104F061F8C82055
:1008700000F0DEFB0020211832182031401C0979DD
:1008800080B291760228F6D3002003231B022118A0
:10089000203100E02DE032182032401C897980B2EE
:1008A000D1729842F3D36F701CE021490420087084
:1008B00018E001F083FF11E00020032122180B1A39
:1008C00020329B19401C127980B29A750428F5D306
:1008D0000A49042216311748FFF750FC6188009836
:1008E00004F02AF967802770012189020098FFF738
:1008F0005EFCF8BDA803002000000020E00B0020F3
:10090000B4F2BFA8B3C9B9A60D0A0000D6B8CEC6C6
:10091000B4F2BFA8B3C9B9A60D0A00005A48495796
:10092000454E5F444154415F434D44310000000057
:100930005D0000202C00002010B5FFF7BDFDFFF783
:10094000A9FD10BDFEB51B4C02226778204614306D
:1009500005251949194E3B0003F0DCFB052B040E5D
:10096000131B2B00144B01210C330091202201900A
:1009700019462639304615E000920B460190212297
:1009800003E000920B46019022220B4930461A39AF
:1009900008E0094B012110330091019019462322F0
:1009A0002A39304603F01CFE0146304604F0C4F8F4
:1009B0006570FEBD5C000020FA0B0020DC0F0020FB
:1009C000FEB56F4C70496F4B0978267A20468C46ED
:1009D0001430DA8A198B00256C4F0297012E04D04F
:1009E000022E33D0032E17D16CE067461426012F58
:1009F000644F7A82B982009601900ED0092239465E
:100A00009B1C029803F0ECFD06460146029804F098
:100A100093F8E6700320207270E0592259499B1C1C
:100A2000029803F0DDFD0246E070A07832214843D1
:100A30005649643140180299FFF7A0FBA078401C8A
:100A4000C0B2A0700E28E5D9A570E3E74D4F664609
:100A50001C37BC461C3F3F88012EBE46494F764698
:100A60007F8B9E83474BDF831A8459840FD00821E4
:100A700000910190634610224249029803F0B0FDB4
:100A800006460146029804F057F8A671C2E708210D
:100A900000910190634669223A49029803F0A0FD53
:100AA0000246A071607932214843394940180299C1
:100AB000FFF764FB6079401CC0B260710E28A9D9B1
:100AC0006571A7E7E168FF22491CF532E1609142B8
:100AD00014D930490978022910D1E560294B012643
:100AE00001902433122227490096384603F078FDFE
:100AF0000146029804F020F8274806702248007842
:100B000000283BD1A078002819D00A2000F090FAE4
:100B10002079322148431D49E27864314118029816
:100B2000FFF72CFBE178029804F006F82079401CCE
:100B3000C0B22071A178884201D32571A570607977
:100B400000281BD0322000F073FAE07932214843AC
:100B50000F49A27941180298FFF710FBA17902987A
:100B600003F0EAFFE079401CC0B2E071617988428D
:100B700001D3E5716571322000F05AFAFEBD000024
:100B80005C000020E00B002006000020DC0F0020AD
:100B90002E130020000000200700002010B5084997
:100BA00000224A6107494B684C1523434B604B6850
:100BB000082423434B60C009C001026010BD00003F
:100BC000900300200020024010B5214A00219069C6
:100BD000C305204804D54169022319434161911599
:100BE00093699B0505D5436901242343436163024F
:100BF000194393695B0505D5436908242343436181
:100C0000E301194393691B0505D543690424234374
:100C100043616302194393699B0405D5436910241A
:100C2000234343616302194393699B0304D54469D9
:100C300020231C43446119439369DB0305D54369B1
:100C4000402423434361A0020143916110BD000091
:100C5000002002409003002070B5054600F05AFBCA
:100C60000646184C0AE0681C08D0002D04D000F09D
:100C700051FB801BA84201D9032070BDA069C007A9
:100C8000F1D1A069800701D50220A061A069C0054B
:100C900011D4A06980050ED4A06940050BD4A069C9
:100CA000000508D4A069800405D4A069800302D49B
:100CB000A069C00303D5FFF787FF012070BD0020A6
:100CC00070BD000000200240F8B516460F460546EC
:100CD000002407E002CDA000395004A003F00AFA76
:100CE000641CA4B2B442F5D3F8BD0000726561641F
:100CF00020646174612030782578204F4B0A000011
:100D0000F7B505461F200024C006012184B028182D
:100D1000090417460094884204D31EA003F0EAF9A0
:100D200007B0F0BD00F000FAFF201D4903308861D4
:100D30000120039069460295019401A800F086F90C
:100D400000280CD017A003F0D5F900F0BBF901463C
:100D50001AA003F0CFF91DA0009903F0CBF90024ED
:100D60000CE0A600059871198259022000F0BEF926
:100D7000002808D019A003F0BDF9641CBC42F0D3D0
:100D800000F0A6F9CCE70598815917A003F0B2F955
:100D9000F3E70000B7C7B7A8B5D8D6B70D0A00006B
:100DA000002002400D0A20464C4153482045726104
:100DB0007365204661696C0D0A0000004661696C2C
:100DC00020436F64653A25640D0A00004661696C32
:100DD00020506167653A25640D0A00006661696C00
:100DE00065642121210A00007772697465206461BD
:100DF00074612030782578204F4B0A0030B50146C9
:100E000020314A790023022A04D00422C2630B71E4
:100E1000012030BD026814680E25AC4314600268DE
:100E20001468640864001460446C1C22144001229D
:100E30001546006CA54045604A7118460B7130BDDF
:100E400070B50024014620314A79022A03D00421DA
:100E5000C163012418E0026813680E25AB431360D8
:100E6000026813685B085B001360436C1C2213402C
:100E7000012215469D40036C5D604A7100220A7193
:100E8000816B002900D08847204670BDC06B704739
:100E9000F0B4016C0D6801680C68466C1C230422D8
:100EA0001E401746B7402F420ED067070CD50C687E
:100EB000A40602D40C6894430C60416C19408A402B
:100EC000016C4A60016B1AE00227B74002462F40CE
:100ED0002032002F17D0A70715D50C68A40605D41B
:100EE0000C680A25AC430C6001215171446C02214D
:100EF0001C40036CA140596000211171C16A002996
:100F000018D0F0BC08470827B7402F4212D024075A
:100F100010D50C680E25AC430C60446C01211C40BC
:100F20000B46A340046C6360C163517100211171D1
:100F3000416BE4E7F0BC704770B504003CD01F483B
:100F4000256814212818FFF7D3F8800060641C4836
:100F50002064022120462030024641712968194848
:100F6000E3680140A0686669184323693343184366
:100F7000A3691843E3691843236A184308432860A8
:100F80000121A0688903884210D00D488030836A0F
:100F9000656C1C210D400F26AE40B3438362656C27
:100FA00063680D40816AAB400B4383620020E063BD
:100FB00001215171107170BD012070BDF8FFFDBF9E
:100FC000000002400F80FFFFF8B504468C46203039
:100FD00001790025012909D00126067141790027F0
:100FE000012905D0077102252846F8BD0220F8BD69
:100FF00002214171E76320680168490849000160E6
:1010000061462046FFF730FA206B0028206801680F
:1010100001D00E2205E0042291430160206801689E
:101020000A22114301602068016831430160DBE757
:1010300070B5044600F06EF90546601C00D0641CD3
:1010400000F068F9401BA042FAD370BDF8B51A4E03
:101050000546307C0F46012807D001203074174820
:10106000FFF7FAFD010002D021E00220F8BD0020C8
:10107000C04338606C6814E02046FFF78FFD0F48CE
:10108000FFF7EAFD01460E48426808239A43426092
:10109000426843159A434260002901D03C6006E053
:1010A0008034A8686A68C0018018A042E4D8002093
:1010B00030740846F8BD00009003002050C30000C3
:1010C0000020024001484069704700009003002062
:1010D00005484168022211434160416801221143E1
:1010E000416000207047000000200240F8B50C4C21
:1010F0001646207C0F46012808D00120207409489C
:10110000FFF7AAFD0025002802D006E00220F8BD66
:1011100065613E600348FFF79FFD2574F8BD000040
:101120009003002050C3000011484168C9070BD04C
:10113000EFF3108172B60F4AC2600F4AC26081F3AA
:1011400010884168C9070ED1416889070DD5EFF3B2
:10115000108172B6094A0261094A026181F310885E
:101160004068800701D501207047002070470000CB
:1011700000200240EFCDAB8905040302BFAE9D8C79
:1011800016151413F8B500230124A2E027469F404A
:101190003A4070D04D68022D01D0122D14D1DD08D7
:1011A000AD002D1800952D6A5E07AC46F50E0F2692
:1011B000AE46AE406546B543AC460E697546AE4098
:1011C00065462E43009D2E624D68012D05D0022DEF
:1011D00003D0112D01D0122D16D185680326AC46FF
:1011E0005D00AE46AE406546B543AC46CE6875463A
:1011F000AE4065462E43866046680D79BE43ED06D7
:10120000ED0F9D403543456006685F000325BD40F6
:10121000AE46AE430D79B446AE07B60FBE40654646
:101220002E430660C6687546AE438D68BD403543A3
:10123000C5604D68ED004BD5294D6E6B26436E633E
:101240009E08284DB6007519AC46AD689E07360F4E
:101250000F27B740BD4305273F07B84201D10027FC
:1012600015E0214FB84201D1012710E01F4FB842CD
:1012700002D102270BE02BE01D4FB84201D103271A
:1012800005E01C4FB84201D1052700E00627B74012
:101290002F436546AF60184D2E684F689643FF0395
:1012A00000D516432E606E684F689643BF0300D585
:1012B00016436E60AE684F689643FF0200D5164332
:1012C000AE60EE684F689643BF0200D51643EE60ED
:1012D0005B1C0A681546DD4000D057E7F8BD0000EA
:1012E00000100240000001400004005000080050BF
:1012F000000C0050001C0050000401400069084030
:1013000000D001207047002A01D0816170478162BE
:10131000704700000148006870470000340000205A
:1013200070B504000FD02168134808602168134885
:10133000086003CC41602068083C21688860FFF7A2
:10134000E9FF054608E0012070BDFFF7E3FF401B01
:10135000302801D9032070BD2068C0680028F4D16E
:1013600020680269E1688A4201D0016101E0044914
:101370000160002070BD0000CCCC0000555500007D
:10138000AAAA00000068024901600020704700001E
:10139000AAAA000002480168491C016070470000C9
:1013A0003400002010B50848002401684022114391
:1013B0000160204600F00AF8002801D0012401E075
:1013C00000F03CF8204610BD0020024000B5014668
:1013D00087B000220F2000F047F80F2000F03AF805
:1013E0001248816B01221143816305A9684600F010
:1013F000B3F900F0D1F90E49FEF77AFE01220D494A
:1014000092070A600C4A401ECA60486000200861CA
:101410008860084600F09AFD002802D0012007B03D
:1014200000BD044800F0ADFDF9E7000000100240E7
:1014300040420F0054030020E70300000448416BC2
:10144000012211434163816B0204114381637047A0
:1014500000100240C106C90E012088400149086001
:101460007047000000E100E010B501F069FB10BD1D
:10147000F8B504460078544D800672D5524E0027C8
:10148000403EB06BC00004D4B06BA9050843B06304
:1014900001274E480168C90511D40168821511431E
:1014A0000160FFF737FF009005E0FFF733FF009979
:1014B000401A642837D845480068C005F5D5326819
:1014C0000321090560680A400140914208D0810368
:1014D000890F032904D13168890301D50120F8BDA2
:1014E0002A69032109040A4022D0084090421FD0F3
:1014F000207880061CD528692A6988430121C904FF
:101500000A432A612A698A432A612861C0050FD5E6
:10151000FFF700FF009008E0FFF7FCFE0099411A7A
:101520002B48814201D90320F8BD28698005F3D5F5
:1015300061688803800F032805D132680005824363
:1015400001400A4332602869032261681204114095
:1015500008432861002F04D0B16B012000078143AC
:10156000B1632078C00705D0E868A16880088000D2
:101570000843E8602078800705D5E8680C21884397
:10158000E1680843E8602078400706D5E868032151
:101590008902884321690843E8602078000706D55E
:1015A000E86803210903884361690843E8602078FB
:1015B000000606D5E868032189048843A169084329
:1015C000E8600020F8BD00004010024000700040BC
:1015D0008813000070470000F8B50E4605007DD066
:1015E00053480068C007C00FB0420AD25048016893
:1015F00049084900314301600068C007C00FB0428C
:1016000071D128784B4C800705D5E068F0218843DC
:10161000A9680843E0602878C00752D068680228AB
:1016200017D0032818D02168012818D0890500296F
:1016300059DAE168890889000143E160FFF76AFE31
:1016400069680746022912D003291CD0012926D037
:1016500033E021688903EAE721688901E7E7490760
:10166000E5E7FFF757FEC11B3348814223D8E06806
:101670000007800F0228F4D123E0FFF74BFEC11BC7
:101680002D48814217D8E0680007800F0328F4D165
:1016900017E0FFF73FFEC11B274881420BD8E068E7
:1016A0000007800F0128F4D10BE0FFF733FEC11BC8
:1016B0002148814201D90320F8BDE0680007800F6E
:1016C000F3D11B480168C907C90FB1420DD90168A0
:1016D0004908490031430160006800E003E0C007A9
:1016E000C00FB04201D00120F8BD2878400706D5D0
:1016F000E068072109028843E9680843E060287828
:10170000000707D5E0680721C90288432969C90095
:101710000843E06000F060F8E168084A0906090F34
:10172000515CC840064908600020FFF74FFEF8BD35
:10173000002002400010024088130000504B0008B7
:1017400038000020034801680122D20411430160DF
:10175000704700000010024010B50F2202600C4AD2
:10176000D3689B079B0F4360D368F02423408360BA
:10177000D46807231B021C40C460D268D2081A40F8
:10178000026104480068C007C00F086010BD000077
:101790000010024000200240044805490068C96862
:1017A000044A4905490F515CC84070473800002081
:1017B00000100240694B0008044805490068C968E8
:1017C000044A8904490F515CC84070473800002022
:1017D00000100240694B000810B5184AD1680C206F
:1017E000084004280BD0082810D00C2810D05068CE
:1017F0000004410F0120C003491C884010BD10683F
:10180000C00601D50E4810BD0E4810BD0E4810BDD3
:1018100088020E4B000F185C0902D368890F491C1F
:10182000DB0301D5084A05E01268D20601D5044A57
:1018300000E0044A5043FEF75BFC10BD001002407C
:1018400000093D000024F40000127A00604B0008FB
:1018500010B5044C6069C00503D5FFF7BBFEA015A9
:10186000A06110BD00100240FEB505007ED0FE4C08
:10187000E7680C20E668074001200004064028784D
:10188000C00747D0082F05D00C2F0AD10120000433
:10189000864206D1206880033CD568680028E5D0E0
:1018A00038E0012069680004814203D121680143C6
:1018B000216011E0052301221B0492049942216852
:1018C00002D111432160F1E7814321602168014089
:1018D0000091206890432060686800280DD0FFF7D1
:1018E00019FD009005E0FFF715FD0099401A6428E6
:1018F0007AD820688003F6D50CE0FFF70BFD009046
:1019000005E0FFF707FD0099401A6428F0D8206829
:101910008003F6D42878800755D50923E868042F7A
:101920000DD00C2F01D1002E09D000283BD021680A
:10193000994301432160FFF7EDFC064627E021684B
:10194000490701D5002891D061681F2212029143F6
:101950002A691202114361602168994301432160A1
:10196000FFF73AFFE16809060A0F00E079E1BF4995
:10197000895CC840BE4908600020FFF727FD0028A9
:1019800072D120E0FFF7C6FC801B0228B0D8206887
:101990004007F7D560681F210902884329690902B9
:1019A000084360600FE02068400840002060FFF7B7
:1019B000B1FC064604E0FFF7ADFC801B022897D877
:1019C00020684007F7D42878C0065FD5002F0CD0D8
:1019D000A869002849D02068FF2101310843206010
:1019E000FFF798FC06462DE0C0E02068800502D590
:1019F000A8690028A7D06068072149038843296A9D
:101A0000084360606068297F0002000A09060843F5
:101A10006060286A410B0120C003491C8840E168CE
:101A200009060A0F9149895CC84091490860002065
:101A3000FFF7CCFC002817D128E0FFF76BFC801BD8
:101A40000228A3D820688005F7D5606807214903DC
:101A50008843296A084360606068297F0002000AA1
:101A600009060843606011E0E1E02168FF200130D1
:101A700081432160FFF74EFC064604E0FFF74AFC75
:101A8000801B022872D820688005F7D42878794E08
:101A9000000724D568690028306910D00121084367
:101AA0003061FFF737FC009005E0FFF733FC009949
:101AB000401A02285AD830698007F6D50FE040084E
:101AC00040003061FFF726FC009005E0FFF722FCA4
:101AD0000099401A022849D830698007F6D428783E
:101AE000400765D500200290A06BC00006D4A06B13
:101AF000012109070843A063012002905E480168A4
:101B0000C90511D40168821511430160FFF702FC79
:101B1000009005E0FFF7FEFB0099401A642825D8E5
:101B200055480068C005F5D5FF20AA6801308242FB
:101B300003D131690143316111E001218902002A99
:101B400007D005231B029A4203D132690A4332614E
:101B5000EFE7326982433261306988433061A868B7
:101B600000280FD0FFF7D6FB009007E05EE0FFF7FC
:101B7000D1FB0099411A4148814257D8306980050C
:101B8000F5D50DE0FFF7C6FB009006E0FFF7C2FBBE
:101B90000099411A3948814248D830698005F5D406
:101BA0000298002804D0A06B012109078843A06394
:101BB000686A002864D00C2F3ED001263606022821
:101BC000206805D0B0432060FFF7A4FB05462FE056
:101BD000B0432060FFF79EFB074604E0FFF79AFB47
:101BE000C01B022822D820688001F7D4E96AA86ABD
:101BF000E2680843296BFD231B049A431143084301
:101C0000E060206830432060FFF784FB054604E075
:101C1000FFF780FB401B022808D820688001F7D519
:101C20002EE0FFF777FB401B022801D90320FEBD01
:101C300020688001F5D423E00128F8D0E068012174
:101C40000904AA6A014091420BD10F218904EA6A72
:101C50000140914205D1032189050840296B884242
:101C60000ED00120FEBD000000100240504B0008C5
:101C7000380000204010024000700040881300002F
:101C80000020EFE770B5040007D000262546403558
:101C9000A662687C002802D005E0012070BD2E7489
:101CA000204600F02FF80220687420680168402266
:101CB00091430160A168606822690843E1681143AB
:101CC0000843616901220843A16952021140084397
:101CD000E1690843216A0843A16A08432168086052
:101CE000A0690421000C0840616A0843216848602B
:101CF0002068C16992009143C161666501206874E2
:101D0000002070BD10B586B0044614216846FEF769
:101D10004EFA10492068884219D10F48416B82144D
:101D200011434163C16A01221143C162C06A0021AB
:101D300010400590E02000900220019003200390C5
:101D400002910491052069460007FFF71BFA06B0CF
:101D500010BD00000030014000100240FFB50446F5
:101D600083B0012001900020264640360090307C50
:101D70000C9F1D4601280FD001203074FFF7CAFACE
:101D80000290707C616801280DD0CA1FFD3A08D10D
:101D9000A168002905D102E0022007B0F0BD0428A7
:101DA00001D00220C3E00498002828D0059800281C
:101DB00025D0002D23D0707C042801D0052070741C
:101DC000002060650599A163E587A58704992163D3
:101DD000E586A5862064606420680168490603D40E
:101DE00001684022114301600121E068C902884274
:101DF000606848D1002804D0012D02D03CE00120C9
:101E000095E0206B21680088C860206B801C2063EF
:101E1000E08E401EE0862FE020688168890710D59B
:101E2000E18E00290DD0019901290AD1216B098881
:101E3000C160206B801C2063E08E401EE086002085
:101E4000019020688168C9070DD0E18F00290AD070
:101E5000C068A16B0880A06B801CA063E08F401E4F
:101E6000E08701200190FFF755FA01460298081A11
:101E7000B84201D3781C59D1E08E0028CCD1E08F34
:101E80000028C9D146E0002801D0012D3CD1206BAB
:101E9000216800780873206B401C2063E08E401E90
:101EA000E08631E020688168890710D5E18E00293D
:101EB0000DD0019901290AD1216B09780173206B9A
:101EC000401C2063E08E401EE086002001902068C8
:101ED0008168C9070DD0E18F00290AD0C068A16BC5
:101EE0000870A06B401CA063E08F401EE0870120BB
:101EF0000190FFF70FFA0299401AB84202D3781CFA
:101F000002D013E0002F11D0E08E0028CAD1E08F5C
:101F10000028C7D139462046029A01F0C6FA0028A7
:101F200007D0012000902020606509E00320009088
:101F300006E0A068002803D12068C168806801908D
:101F40000120707400203074009826E770B50400FA
:101F500005D025462035687E002802D006E0012005
:101F600070BD00202876204600F00AF8022068762E
:101F7000211D206801F080FC01206876002070BDE2
:101F800070470268D36801210B43D3600068826800
:101F90005207520F062A02D002680A43026000204C
:101FA0007047704770B50446006801690025C94351
:101FB0008907002915DBC168C943890711D4E91EC7
:101FC000016101202076206880698007204602D0C8
:101FD000FFF7E7FF04E000F078F8204600F076F81D
:101FE000257620680169C943490717D4C168C943E8
:101FF000490713D40421C9430161022020762068D7
:1020000080698005800F204602D0FFF7CAFF04E0F8
:1020100000F05BF8204600F059F825762068016949
:10202000C943090716D4C168C943090712D4082156
:10203000C9430161042020762068C06980072046DA
:1020400002D0FFF7AEFF04E000F03FF8204600F0BA
:102050003DF8257620680169C943C90617D4C168CF
:10206000C943C90613D41021C94301610820207651
:102070002068C0698005800F204602D0FFF791FFDD
:1020800004E000F022F8204600F020F825762068D1
:102090000169C943C90708D1C168C943C90704D147
:1020A000891E0161204600F013F820680169C943C8
:1020B000490609D4C168C943490605D44021C9432A
:1020C0000161204600F058F870BD7047704700006D
:1020D000F8B5224C0125A168AD07491CA160016833
:1020E0000022A94205D11E4E1E493378012B0AD089
:1020F0000A600068A8422CD1E068401CE060E068FB
:102100000A280CD00FE00B68174F5B1C0B60BB421A
:10211000EFD932700A60154B01211970E9E7E260CE
:102120002069401C2061FFF735F9E0697D21401CE2
:10213000C900E061FDF7DCFF00290AD1A0690C4964
:10214000401C020EA0618A75020CCA75020A0A764A
:1021500048760848FFF716F9F8BD00001400002083
:102160000700002010000020881300000600002057
:10217000E00B0020940000207047704770B5416F5D
:102180000446856F0068826810261206002A14DA59
:10219000212912D18168802291438160A06E00289C
:1021A00008D0FEF72BFE002804D0A06EFEF76EFECE
:1021B00020281DD0204601F085FD20688168490651
:1021C00014D5222D12D18168402291438160E06EA6
:1021D000002808D0FEF712FE002804D0E06EFEF7BB
:1021E00055FE202804D0204601F05CFD002070BD83
:1021F000E667032070BD7047F8B502680446D069F1
:102200001168936805072D0F5BD0DD07ED0FFF26E2
:1022100021360E402E4367D0C60706D0CE0504D522
:1022200001261662E26F3243E26787070222042624
:10223000002F06DADF0704D027683A62E76F3743DA
:10224000E767470706D5DB0704D023681E62E36F04
:102250001343E367020709D520220A402A4305D029
:10226000236808221A62E36F1343E367E26F002AD0
:102270002FD0800606D5880604D5216E002901D00E
:1022800020468847E06F21688968490601D4000725
:1022900024D5204601F006FD20688168490619D53D
:1022A0008168402291438160E06E002812D020496D
:1022B0008163E06EFEF7C4FD00280AD0E06E816BFA
:1022C00006E0850610D58D060ED5216E1CE0204651
:1022D0008847F8BD2046FFF78EFFF8BD2046FFF780
:1022E0008AFF0020E067F8BDC50208D55B0206D56D
:1022F0000120000510622046FFF73FFFF8BD0306EE
:1023000005D50B0603D5616E0029E0D1F8BD400666
:10231000FCD54806FAD51368204640218B4313604C
:10232000202161670021616600F0C5F9F8BD000059
:10233000013C000810B5040003D0606F002802D0F3
:1023400007E0012010BD002170200155204600F05B
:1023500027F8242060672068016849084900016067
:10236000204601F0B7FC0128ECD0606A002802D0BA
:10237000204601F0AFFB206841680922D202914358
:102380004160206881682A22914381602068016849
:10239000012211430160204601F002FC10BD000043
:1023A000F0B587B0064614216846FDF700FF584B8C
:1023B0003268002457490227032004259A4226D177
:1023C0008A6B2B041A438A63CA6A3A43CA62C96A8F
:1023D0000390394005918102009101970495029480
:1023E00069464D48FEF7CEFE4D4D4C482860AC6026
:1023F0000520EC6068606C61AC61EC6180202C624F
:10240000286128463CE0F566AE6207B0F0BD454B5A
:102410009A423CD14A6B01239B031A434A63CA6A1E
:1024200001231A43CA62C96A074619400591590235
:102430000091022101AA049592C205206946000775
:10244000FEF7A0FE012080020090022001900120F2
:10245000029005206946039704950007FEF792FE57
:102460002F4D2E484835AC603C38EC6081C5EC609F
:102470002C616C618020AC61A86028460838083D5A
:10248000FEF75AFD0028BED0FEF77EF9BBE7264BCB
:102490009A42BAD18A6B01235B041A438A63CA6ADF
:1024A00001231A43CA62C96A0320194000950390A8
:1024B0000591052001970495029469460007FEF7EF
:1024C00061FE082000900120029003200390052067
:1024D0000197694604950007FEF754FE104F0F4818
:1024E0009037BC601438FC6021C7FC603C617C61A3
:1024F0008020BC61B86038460838083FFEF71CFDF4
:10250000002801D0FEF740F9F766BE627DE70000C3
:102510000048004000100240000400506C000240DF
:10252000240200200038014000440040F8B5044671
:10253000806F20284DD100290BD0002A09D001231B
:10254000A0681B03984206D12069002803D1C80760
:1025500001D00120F8BD25466035287C012838D0FF
:10256000012028745820616502530026E667222066
:10257000A067E06E002819D01749C162E16E1748C4
:102580000863E16E16484863E06E13468663676D24
:1025900021683A462431E06EFEF716FD002805D08A
:1025A0001020E0672E7420206067D2E72E74206828
:1025B0000168FF2201321143016020688168012215
:1025C00011438160206881684022114381600020AE
:1025D000F8BD0220F8BD00005D3C00089B3C0008EF
:1025E000153C000870477047FFB50446406F83B044
:1025F00017460D4620285CD1002D0AD0002F08D0A8
:10260000A168C001814207D12069002804D1E807F0
:1026100002D0012007B0F0BD204660300290007C5F
:10262000012846D00298012101740020E067212092
:102630006067FEF76FFE264640360190378277824C
:102640000120A1680003814202D12069002802D044
:102650002F46002511E000270FE0002280212046B0
:1026600001F04CFC002815D1002F15D021683878D6
:1026700088627F1C708A401E7082708A019B0028CD
:1026800006980090E9D100224021204601F036FC56
:10269000002808D00320BDE728882168C005C00DA8
:1026A0008862AD1CE6E7202060670299002008746C
:1026B000B0E70220AEE77047FEE7000010B5012248
:1026C00011491248FEF700FB1048032210498030E0
:1026D000FEF7FAFA0C4C04E002F054F90D48FEF74C
:1026E00051FE20680128F7D17D24E4002046FEF742
:1026F0009FFC0848FEF746FE2046FEF799FC0C2199
:10270000034802F019FA10BD8C00002000FF0008F9
:1027100080000020940000207CB50546EF2069462B
:102720000870012048701248124E0068020E8A702C
:10273000020CCA70020A0A714871072088710024CD
:10274000CC7134700DE00120FEF772FC3178304618
:10275000012906D104706946B01DFDF733FD00283C
:1027600004D16D1E2D042D0CEDD100207CBD000088
:102770003C000020B007002010B50E4C2068C16955
:10278000C943C90612D4102101622046FFF7F6FCA6
:10279000E06E00684068012292020749101A4880E2
:1027A000012008702046891DFFF7C0FE0148FFF791
:1027B00023FD10BDA4000020B0070020F8B50526B9
:1027C00004460122360711023046FEF79CFD012225
:1027D000D70239463046FEF796FD0022394630468C
:1027E000FEF791FD0520FEF723FCE007C00F002552
:1027F00000280ED0012239463046FEF784FD3C20E9
:1028000001F0E6FE002239463046FEF77CFD14203A
:102810000DE0012239463046FEF775FD142001F027
:10282000D7FE002239463046FEF76DFD3C2001F010
:10283000CFFE6408E0076D1CC00FEDB2082DD7D3A2
:10284000012239463046FEF75EFDF8BD10B541283D
:1028500001D0FF2010BD08210846FDF7E6FD3D210F
:10286000112001F02FFC8621172001F02BFC7F2185
:10287000262001F027FC1E212D2001F023FC002141
:102880002C2001F01FFC8D212A2001F01BFC3E2191
:102890002B2001F017FC0120FEF7CAFB00F0F0FB33
:1028A000002010BD08B50448016B012211430163EB
:1028B000006B1040009008BD00100240F0B587B0DA
:1028C00014216846FDF773FC3548C26A04210A43A7
:1028D000C262C26A0A400592C26A80210A43C26289
:1028E000C26A0A400592C16A01252943C162C16AD0
:1028F00029400591C16A02263143C162C06AAF0313
:1029000030400590002239462648FEF7FCFC0520A1
:10291000002225490007FEF7F6FC052001221221BE
:102920000007FEF7F0FC012220492148FEF7EBFCEE
:10293000680300246A4651C269461A48FEF722FC21
:10294000029469461748009701950394FEF71AFC14
:1029500015480294103000900520694601950394B3
:102960000007FEF70FFC0520029469460007009659
:1029700001950394FEF706FC0C480090029469460A
:10298000019503940A48FEF7FDFB280200900520FC
:102990006946019502940007FEF7F4FB07B0F0BD0D
:1029A00000100240000800500118000018700000DC
:1029B0000004005010B50848064901600421416038
:1029C0000649C1608160FEF7ABFC002801D0FDF72D
:1029D000DBFE10BD003000409400002071020000BA
:1029E00010B50C480A490160E1214902416000210B
:1029F0008160C160016181610C22016242614162BA
:102A0000FFF798FC002801D0FDF7BEFE10BD0000C6
:102A100000480040A400002010B5002201211D2024
:102A2000FEF722FD1D20FEF715FD002201211C20CE
:102A3000FEF71AFD1C20FEF70DFD002202211B20CF
:102A4000FEF712FD1B20FEF705FD012211460A20AC
:102A5000FEF70AFD0A20FEF7FDFC012202210B20F1
:102A6000FEF702FD0B20FEF7F5FC10BD10B50F4878
:102A70000D490160FF210531416000218160C16085
:102A800001220161520282614161016220224162A0
:102A9000C26181620721C162FFF7F4F8002801D00A
:102AA000FDF772FE10BD000000300140FC02002066
:102AB00010B50C480A490160E1214902416000213A
:102AC0008160C16001618161C1610C22016242616A
:102AD0004162FFF72FFC002801D0FDF755FE10BD25
:102AE000003801402401002010B50C480A4901605B
:102AF000E1214902416000218160C1600161816181
:102B0000C1610C22016242614162FFF713FC00289F
:102B100001D0FDF739FE10BD00440040A4010020A3
:102B200001B5034B012269460248FFF75DFD08BD70
:102B3000FFFF0000A400002010B5FEF789FE10BDC5
:102B40008307FF22DB0E9A408907090E994000286F
:102B50000BDA0007000F0838830808489B00181894
:102B6000C36993430B43C3617047830804489B00C8
:102B70001B181868904308431860704700ED00E088
:102B800000E400E0F8B50C46054600F058FD00F002
:102B900037FD0120FFF7C4FF072000F058FD0C208F
:102BA000FFF7BEFF2F0A3846FFF7BAFFE8B2FFF77C
:102BB000B7FF260A3046FFF7B3FFE0B2FFF7B0FFDA
:102BC000E8B238188019E1B24018143000F02EFD38
:102BD0007D200001FFF7A0FD002801D0407AF8BD5C
:102BE000FF20F8BDF8B514460E46054600F027FD57
:102BF00000F006FD0120FFF793FF042000F027FD01
:102C00000920FFF78DFF2846FFF78AFF28460E3080
:102C100000F00CFD7D200001FFF77EFD002821D093
:102C2000477A002524880FE0802C10D9E80181190B
:102C30008022022000F015FD803C6D1CA4B2ADB2D4
:102C400021460AA001F056FA002CEDD10BE0E80174
:102C500081192246082000F004FD294608A001F051
:102C600049FA00E0FF273846F8BD000075313646C6
:102C7000674C656E54656D2025640D0A00000000E8
:102C8000753136506B67436E742025640D0A000061
:102C900010B500F0D4FC00F0B3FC0120FFF740FFBA
:102CA000032000F0D4FC0D20FFF73AFF112000F0C4
:102CB000BDFC7D200001FFF72FFD002801D0407AE8
:102CC00010BDFF2010BD10B5044600F0B8FC00F0A8
:102CD00097FC0120FFF724FF042000F0B8FC02203D
:102CE000FFF71EFF2046FFF71BFFE01D00F09EFCD4
:102CF0007D200001FFF710FD002801D0407A10BDB3
:102D0000FF2010BD10B500F09AFC00F079FC012006
:102D1000FFF706FF032000F09AFC0120FFF700FFF9
:102D2000052000F083FC7D200001FFF7F5FC002862
:102D300001D0407A10BDFF2010BD000070B50446E0
:102D400000F07DFC00F05CFC0120FFF7E9FE0020B4
:102D5000FFF7E6FE0020FFF7E3FEC820FEF768F964
:102D60000F49087801280AD18A790020EF2A05D175
:102D7000CA79012A02D10A7B072A02D008700120F1
:102D800070BD0B7ACA7A1B06D2184B7A8D7A1B0457
:102D90002D025B19D21822600870002070BD00005F
:102DA000B0070020FFB581B014460D4600F047FC87
:102DB00000F026FC0120FFF7B3FE082000F047FCDE
:102DC0001B20FFF7ADFE0198FFF7AAFE2F0A384639
:102DD000FFF7A6FEE8B2FFF7A3FE260A3046FFF78C
:102DE0009FFEE0B2FFF79CFE0198E9B23818401848
:102DF0008019E1B24018243000F018FC7D20000159
:102E0000FFF78AFC00280DD0827AC37A1202D2180A
:102E1000049B417A1A80027B407B12021018049AAC
:102E2000508000E0FF21084605B0F0BD70B50446B3
:102E300000F005FC00F0E4FB0120FFF771FE032029
:102E400000F005FC0F20FFF76BFE132000F0EEFBF7
:102E50007D20C000FFF760FC00281AD0817BC27B78
:102E600009028918457A89B22180427CA270837C4C
:102E7000427D1B06D218C37C067D1B0436029B19BB
:102E8000D2186260C27D2272407E6072002D0AD02C
:102E900000E0FF252846FDF755FB01460AA001F09A
:102EA00029F9284670BD0AA001F024F9A1780EA0E6
:102EB00001F020F910A0616801F01CF9617A4B2043
:102EC000C00141430FA0EAE70D0A2573000000008E
:102ED0000D0AC4A3BFE9D7EEB4F3D6B8CEC6C8DD99
:102EE000C1BF3D25640D0A000D0AB6D4B1C8B5C8EE
:102EF000BCB63D25640D0A000D0AB5D8D6B73D25F0
:102F0000780D0A000D0AB2A8CCD8C2CA3D25640DBE
:102F10000A00000070B50C46064600F090FB00F079
:102F20006FFB0120FFF7FCFD062000F090FB062060
:102F3000FFF7F6FD3046FFF7F3FD250A2846FFF7B9
:102F4000EFFDE0B2FFF7ECFDA819E1B240180D303B
:102F500000F06CFB7D200001FFF7DEFB002801D0B4
:102F6000407A70BDFF2070BDF7B5044682B00020E6
:102F7000009000F064FB00F043FB0120FFF7D0FD60
:102F8000042000F064FB0820FFF7CAFD2046FFF78D
:102F9000C7FD20460D3000F049FB7D252D010C4C6E
:102FA0000027277007E00120FEF742F8207801286B
:102FB00001D12770A61D6D1E2D042D0CF3D1618843
:102FC0003046049B039AFDF789F9009805B0F0BDDF
:102FD000B007002070B5054600F031FB00F010FB93
:102FE0000120FFF79DFD032000F031FB1D20FFF7BE
:102FF00097FD212000F01AFB7D200001FFF78CFBDC
:10300000002808D0817AC27A0902447A8918298076
:10301000002C0AD000E0FF242046FDF793FA014679
:1030200005A001F067F8204670BD817AC07A0902D8
:10303000091803A0F5E700000D0A25730000000041
:103040000D0AD3D0D0A7D6B8CEC6B8F6CAFD3D2556
:103050006400000010B5092202A10548FDF78EF8B2
:1030600010BD000039386E4136353961000000006E
:103070007000002010B503211420FDF7D6F910BD13
:1030800010B5142000F0F9F9800703D103211420B2
:1030900000F00AFB10BD70B50646082188B0002478
:1030A0000846FDF7C2F900210D2001F00BF8802140
:1030B0000E20FDF7BAF99321684601712021417174
:1030C00006A801AB0090022219460C2000F03FF840
:1030D00005000DD1002101A8425C7254425C491CDC
:1030E0005440C9B20429F7D3405CA04200D0FE2569
:1030F00080210E2000F0D8FA284608B070BD30B507
:1031000087B06C4620716171002001A9145C0D1814
:10311000401CC0B2AC700628F8D300201A5C0C1812
:10312000401CC0B222720628F8D306A800900B46B5
:103130000C220E2000F00BF8040004D1082000F04F
:103140009CF9000700D4FE24204607B030BDFFB52F
:1031500081B000240198FE26174600940C2804D064
:103160000E2805D11224102001E077243020009091
:10317000214680200143022000F0A4FF802104208A
:10318000FDF753F90021012000F09CFF80210A2067
:1031900000F08AFA002505E00298415D092000F060
:1031A00091FF6D1CBD42F7D30120019900F08AFF09
:1031B00001980C2803D180210D2000F075FA4B27CF
:1031C000FF00042000F059F905467F1E04D0E807EF
:1031D00002D100980542F4D080210D20FDF725F999
:1031E000002F0FD0062000F048F91B21084208D11B
:1031F00000262540E80700D0FF2601980C280CD0B7
:1032000000E0FE2680210C2000F04EFA0021012073
:1032100000F058FF304605B0F0BD0A2000F02DF94F
:1032200004460C2000F029F94007400F03D0E100CC
:103230000839091800E0E1000A98002C016004D068
:10324000122C04D91224002503E00124FBE70025F9
:1032500006E0092000F011F90146049841556D1C63
:10326000A542F6D3CEE730B587B00D463022694689
:103270000A71487101AC02212046A21CFDF7A4F896
:1032800006A801AB0090042219460C20FFF75FFF4F
:10329000002802D10699902902D0FE2007B030BD47
:1032A0000023E15CE9545B1CDBB2102BF9D3F5E79A
:1032B00030B50C460546082187B00846FDF7B5F83D
:1032C00007210D2000F0FEFE0321142000F0ECF990
:1032D0006846057106A801AB0090012219460C2032
:1032E000FFF735FF002802D10699102902D0FE20F1
:1032F00007B030BD69460979217069464979617026
:10330000F6E7000070B501221D4D940321462846C2
:10331000FDF7F9FF0A20FDF78BFE00222146284623
:10332000FDF7F1FF0A20FDF783FE01222146284622
:10333000FDF7E9FF0A20FDF77BFE0F21012000F0D9
:10334000C1FE272000F099F88828FAD13D211120EC
:1033500000F0B8FE1E212D2000F0B4FE00212C202C
:1033600000F0B0FE8D212A2000F0ACFE3E212B2083
:1033700000F0A8FE4021152000F0A4FE002070BD42
:103380000008005010B588B0932269460A71702277
:103390004A7100228A72114601AA435C5418A37034
:1033A0006C46A37A445C491C63406C46C9B2A37264
:1033B0000429F2D3072101A8D21DFDF705F8082141
:1033C0000846FDF732F806A801AB0090092219461D
:1033D0000C20FFF7BCFE002802D10699182900D066
:1033E000FE2008B010BD704770B51C4C0025207A37
:1033F000030000F08FFE14310B0D0F11132E151763
:10340000191B1D1F21232527292B2D31012020E0E9
:1034100002201EE003201CE004201AE0052018E032
:10342000072016E0082014E0092012E00A2010E02E
:103430000B200EE00C200CE00D200AE00E2008E02E
:103440000F2006E0102004E0112002E0122000E02E
:103450001320FFF7B3F9257270BD000000000020B3
:1034600010B501F05DFAFFF74DFFFFF703FEFFF720
:1034700007FE4120FFF7EAF910BD70B505250446A7
:103480002D07002210212846FDF73DFFA006400E23
:10349000803000F097F800F029F80446012210214E
:1034A0002846FDF730FF204670BD38B50446406819
:1034B000FF2305332025984204D100920B460022B9
:1034C000802107E05120005D05280DD100920B46B8
:1034D00000220121204600F02FF8002804D0606D62
:1034E00028436065032038BD002038BD0EB500209C
:1034F0006946087208480090012301AA02A90748FA
:10350000FEF72CFC002803D005A000F0F3FD0EBD53
:10351000684600790EBD0000FFFF0000FC0200209D
:103520007370692073656E642072656164206661E2
:10353000696C0D0A00000000F8B51D4617460E46DE
:10354000044609E0681C07D0FDF7E4FE0699401A1E
:10355000A8420BD2002D09D02068816830468843EC
:103560002ED00020B842EDD10020F8BD206841687F
:10357000E022914341606068C11FFD390CD10121F7
:10358000A068C903884202D04911884204D120684A
:1035900001684022914301600120A16A40038142F9
:1035A00007D121680A6882430A6021680A680243D9
:1035B0000A60012040346074002020740320F8BDAC
:1035C0000120CFE701B582B006480090012301AA8F
:1035D00002A90548FEF7C2FB002802D003A000F0B4
:1035E00089FD0EBDFFFF0000FC0200207370692002
:1035F00073656E64206661696C0D0A007047000097
:1036000010B5094C2068000EFFF78AFA2068000206
:10361000000EFFF785FA20880004000EFFF780FAFD
:103620002078FFF77DFA10BD3C00002010B504465D
:10363000000AFFF775FAE0B2FFF772FA10BD10B595
:10364000EF20FFF76DFA0120FFF76AFA10BD10B501
:1036500004460004000EFFF763FAE0B2FFF760FAD9
:1036600010BDF7B5154607460026FFF7E8FFFFF740
:10367000C7FF3846FFF754FAA81CFFF7E8FF0024FD
:1036800009E00198005DFFF74BFA0198005D801991
:10369000641C86B2A4B2AC42F3D378198019801CA2
:1036A00080B2FFF7C3FFFEBD70B50D460446FFF7BD
:1036B000E4FE28430146204600F004FD70BD0000F2
:1036C00010B5014601A000F015FD10BD53686F77DD
:1036D0004572724D657373616765203D25640D0AFF
:1036E000000000007047000010B59AB03421684611
:1036F000FCF75DFD142114A8FCF759FD1C210DA851
:10370000FCF755FD184801680322D2029143C21408
:103710008918016009200090012105915001019054
:103720000A900320022180040B9048050C90099117
:103730006846FEF799F80F20149000240320159096
:10374000169417940121189414A8FDF745FF07203B
:103750000D900F94109411940DA8FDF789FEFDF7BC
:10376000F1FF1AB010BD0000007000401048016861
:10377000821511430160C1680E4A1140C1600168A1
:103780000D4A114001608168490849008160016863
:103790000122920491430160C168FD221204914309
:1037A000C160002101610549C003886070470000C5
:1037B000001002400C40FF88F6FFF6FE00ED00E02E
:1037C00010B527480168002949D00168491E0160E9
:1037D000244C64216068401C6060FCF789FC00296F
:1037E00001D1FDF7EDF80A216068FCF781FC0029A2
:1037F00001D1FFF7F9FD64216068FCF779FC01292C
:1038000001D1FCF7C3FF32216068FCF771FC01298C
:1038100001D100F05DF832216068FCF769FC0129F4
:1038200001D1FDF78FF80A216068FCF761FC0129DE
:1038300001D100F0A7FB32216068FCF759FC012997
:1038400001D100F037F97D21C9006068FCF750FC18
:10385000062904D1012001F02BF80020207010BDB2
:10386000340000201400002010B50248FEF79AFB37
:1038700010BD00005403002070B5026801239B07AF
:10388000114C124D984203D0A04201D0A84203D15E
:103890007026B2434E683243984203D0A04201D012
:1038A000A84204D103231B029A43CB681A43802306
:1038B0009A430B691A4302608A68C262096881628E
:1038C0000121416170BD0000000801400014014069
:1038D000F8B5494C2078002832D00225012821D0A3
:1038E00002282DD1454801F0ABF8002813D00A205A
:1038F000FEF764FFFF26F5363046FDF799FB404999
:1039000001200870A079012800D01020FEF756FF92
:103910003046FDF78DFB207901267603394F0028CC
:103920000FD028E000F0A8FE012809D1002000F007
:10393000BFFF0520FDF77CFB314825700321017096
:10394000F8BD31463846FDF7D9FC002808D00120E3
:10395000207100F0EDFFFF20F530FDF769FB0AE074
:103960006078042807D131463846FDF7C7FC0028A7
:1039700001D100F025FE2079012802D0022825D0AF
:10398000F8BD1D480C3000F0DBFFC0B2A07001286C
:1039900002D002282DD019E0A18918480A0A801EF9
:1039A0008276C1760A20FEF709FFFF20F530FDF789
:1039B0003FFB13480570A079012800D01020FEF7C6
:1039C000FDFEFF20F530FDF733FB2571314638460B
:1039D000FDF794FC0028D3D160780428D0D131467B
:1039E0003846FDF78BFC0028CAD1207100F0E8FDB5
:1039F000F8BD0620E3E7000000000020E20B0020F5
:103A0000640000200008005070B51C4DFF261C4CBF
:103A1000F536A81C01F014F8002805D00A20FEF79E
:103A2000CDFE3046FDF704FB15480C3000F088FF52
:103A3000C0B2A070012802D002280DD012E0A089E7
:103A4000010AA976E8760FA000F054FBE97E13A0E6
:103A500000F050FB0A2000E00620FEF7AFFE3046E3
:103A6000FDF7E6FA3046FDF7E3FAE078401CC0B215
:103A7000E0701428CDD90020E07070BDE00B00206C
:103A80000000002020636F6D5F646174612E6964C3
:103A90005F6275665B305D3D2564000020636F6D7D
:103AA0005F646174612E69645F6275665B315D3D60
:103AB00025640000064800220178012906D14168EA
:103AC000491C4160502902D90221017042607047AF
:103AD0007800002010B5818CC90707D001684A68BA
:103AE00001235B049A43836A1A434A60818C8907E5
:103AF00007D501684A6801231B049A43C36A1A4325
:103B00004A60818C490707D501684A6801239B04F4
:103B10009A43036B1A434A60818C090707D50168F1
:103B20004A680123DB039A43436B1A434A60818C42
:103B3000C90607D50268916801231B039943836B6B
:103B400019439160818C890607D501688A68012331
:103B50005B039A43C36B1A438A60818C490612D572
:103B600003685A6801210905046C8A4322435A609C
:103B7000026C8A4207D10268516803235B059943AE
:103B8000436C19435160818C090607D501684A6866
:103B90000123DB04806C9A4302434A6010BD00009D
:103BA000F8B500260446C667FDF7B4FB0546206855
:103BB0000068124F000709D501212B460022490554
:103BC0002046009700F09AF900280DD1206800687F
:103BD00040070BD501212B4600228905204600977E
:103BE00000F08CF9002801D00320F8BD2020606788
:103BF000A067603426740020F8BD0000FFFFFF01BD
:103C000010B5806A0022014640314A834A82FEF79D
:103C1000F2FA10BD70B5846A606FA56F216889687B
:103C200000260906002906DA212804D1522006536D
:103C3000204600F047F820688068400606D5222D0F
:103C400004D15A200653204600F02CF8E06F1021D2
:103C50000843E0672046FEF7CEFA70BD10B5014676
:103C60000968806A0968890614D400225A210A5218
:103C700001680A68FF2301339A430A6001688A6871
:103C8000520852008A6001688A6840239A438A6019
:103C900020218167FEF7A6FC10BD10B5806AFEF7F3
:103CA000A2FC10BD01680A68FF2321339A430A6011
:103CB00001688A68520852008A60202181670021C9
:103CC0000166704701680A68C0239A430A60202190
:103CD00041677047F8B504462669A268E769324330
:103CE0006669102000253E432368324378491E68E8
:103CF000784F3E4016431E6023685A6803263603F9
:103D0000B243E66832435A602368A2698B4201D00D
:103D1000266A32439E680B273F02BE4316439E60CD
:103D20006D4E23686D4AB3420CD1D2689207920F50
:103D300006D0012A38D0022A34D0032A20D11EE02E
:103D400001201DE0664EB3420AD1D2680C263240F3
:103D500026D0042A28D0082A24D00C2A10D10EE01C
:103D60008B420DD1D66803229202164018D0012250
:103D70009202B61A18D0B61A14D0964200D1082072
:103D8000564A0126403A574FF6038B4236D1002857
:103D90000CD002280DD0042812D008281FD11CE016
:103DA0000020EDE70220EBE70420E9E7FDF7F4FC53
:103DB00008E01068C00601D5384605E04A4803E02F
:103DC000FDF70AFD002873D0626851005118814246
:103DD00005D81103814202D303E03046F4E7012500
:103DE00066E0010E06025008002330185941FCF726
:103DF00095F903210902411A3C4A55E0E169B142B3
:103E000032D1030000F086F909070A0D06250606DF
:103E1000062B0600E3E7FDF7BFFC1CE0FDF7CCFC3A
:103E200019E010686168C00602D54808304A01E010
:103E3000304A48088018FCF75BF980B201462E4AE8
:103E400010399142CBD8511C01400007400F084364
:103E50002CE0FDF7C1FC616840004A08EAE76168B0
:103E6000012248081204E5E7030000F053F90907AE
:103E70000A0D06260606062C0600B0E7FDF78CFCA8
:103E80001DE0FDF799FC1AE010686168C00602D5D4
:103E90004808C01902E014484A081018FCF728F92D
:103EA00080B20146144A1039914298D82168C860FE
:103EB0000020206660662846F8BDFDF78DFC61682D
:103EC0004A088018EAE7616848088019E6E70000B8
:103ED00000480040F369FFEF003801404010024005
:103EE0000044004000093D000024F400FFFC0F00E6
:103EF00000127A000048E801EFFF0000FFB581B032
:103F000017460E4604460A9D09E0681C07D0FDF7D7
:103F100001FA0499401AA8420CD8002D0AD0206852
:103F2000C1693046884318D00020B842EDD0002047
:103F300005B0F0BD20680168FF22A1329143016005
:103F40002068816849084900816020206067A06777
:103F50000020603420740320EAE70120E5E7000038
:103F600010B50248FEF748F910BD000024010020FA
:103F700010B5FCF7C7FA0248FEF73EF910BD000085
:103F8000A4010020F8B52449244CC87E897E000293
:103F9000084340BA009020486278014605462B311C
:103FA000203504260127002A0ED0012A1AD0022A21
:103FB00023D0032A2ED1FEF76BFE002818D0002054
:103FC000A8711748077024E0144A02200A3200F052
:103FD00057FC02200099FEF79DFF092020726F72A6
:103FE000032114E003221202009800F04EFC10E0BE
:103FF000AF710CA000F07EF8E3E701210098FEF716
:10400000C1FD002802D110A000F074F8022104487C
:1040100001706670F8BD0000E00B00200000002079
:104020005D00002044656C65746520416C6C5F66C2
:10403000696E6765727072696E742073756363650B
:10404000737321212100000044656C657465204F65
:104050006E655F66696E6765727072696E742073F3
:1040600075636365737321212100000010B5FFF7AC
:10407000F7F9FCF761FCFCF70DF9FFF7C5FCFEF75B
:104080001DFB034900200860FEF7E4FF10BD00009F
:104090003400002008B569465220FFF709F90028CE
:1040A0000BD069465220FFF703F9002805D0694676
:1040B0005220FFF7FDF8002803D10A20FCF7B8FFD3
:1040C000E9E708BD70B505250E4604462D07002218
:1040D00010212846FDF717F9A006400EFFF772FAE7
:1040E0003046FFF76FFA012210212846FDF70BF941
:1040F00070BD00000FB410B503A9044B044A029828
:1041000000F024F810BC08BC04B01847954800081B
:104110009000002030B47446641E2578641CAB42C5
:1041200000D21D46635D5B00E31830BC184702E017
:1041300008C8121F08C1002AFAD170477047002032
:1041400001E001C1121F002AFBD17047FFB591B0F9
:104150000F460546002606E025280AD0149A139932
:1041600090476D1C761C28780028F5D1304615B094
:10417000F0BD002400940121F34A029400E00443BE
:104180006D1C2B780846203B98401042F7D12878C8
:104190002A280ED0022128780246303A092A15D85A
:1041A000009A0A235A43303A80180C436D1C009041
:1041B000F1E701CF0090002805DA01204003044315
:1041C000009840420090022004436D1C28782E285D
:1041D00015D10420044368786D1C2A280AD101CF28
:1041E0006D1C02900BE002990A22514330394018AD
:1041F0006D1C02902878014630390929F3D92878B6
:104200006C2810D006DC4C281AD068280ED06A28FA
:1042100017D104E0742813D07A2812D110E00120BD
:10422000400504430CE00121090501E003210905D3
:104230000C436978814203D10120000524186D1CCC
:104240006D1C287803906E281ED00CDC632831D0BA
:1042500004DC00288AD0582811D1B2E064287BD031
:1042600069280CD178E073282DD004DC6F2870D039
:10427000702804D1A7E075286CD078286BD0149AE8
:1042800013999047761C62E06002400F022807D025
:1042900003280AD0042838680AD006603F1D56E07B
:1042A0003868F11706604160F8E738680680F5E77E
:1042B0000670F3E73878694608740020487404A84B
:1042C0000390012003E0386803900020C0433F1DA5
:1042D00061070FD5002101E00199491C029A019163
:1042E000914213DA8142F7DB019A0399895C002934
:1042F000F2D10BE0002101E00199491C01918142BA
:10430000FADB019A0399895C0029F5D1019900989B
:10431000139A401A00902146149B00F03BF9019932
:104320008019461807E0039803990078491C039107
:10433000149A139990470198401E0190401CF2D1A5
:104340002146149B139A009800F014F986196D1CED
:1043500009E741E033E034E00A20002104900591B0
:104360006002410F022905D001CFC21794460329EC
:1043700005D007E0FF1DFF08FF0003CF06E000B2F5
:10438000C2179446042902D140B2C1178C460022BC
:104390006146944506DA0A460021404291418C4626
:1043A0002D2102E0210504D52B216A461176012139
:1043B00003E0E10701D02021F7E7019154E00A2052
:1043C0000BE0102009E01020049000210420044399
:1043D00008200591029003E0082000210591049037
:1043E0006002410F022905D001CF00229446032923
:1043F00006D006E0FF1DFF08FF0003CF8C4603E058
:1044000080B2042900D1C0B20021019121072BD52F
:104410000399702906D0049A1021059B4A401A433B
:1044200005D00EE040216A461176012108E0614680
:10443000014306D030216A46117603995176022154
:104440000191049A0821059B4A401A430CD1614608
:10445000014301D1610707D530216A461176012158
:1044600001910299491E02910399582904D037A15C
:1044700003910FA90F910DE039A1F9E76146059B62
:10448000049AFBF74BFE039B8C469B5C0F9A521ED3
:104490000F92137061460143F0D10F9807A9081AD3
:1044A00020300390600704D5012000048443029863
:1044B00001E0012002900399884201DD401A00E0EA
:1044C000002041180290019809180098401A0090A5
:1044D000E00306D42146149B139A009800F05AF882
:1044E00086190020049008E006A9085C149A139924
:1044F00090470498401C761C049001998842F3DB95
:10450000E0030CD52146149B139A009800F042F862
:10451000861904E0149A302013999047761C02996A
:10452000481E02900029F5DC08E00F980F990078EA
:10453000491C0F91149A13999047761C0399481EB1
:1045400003900029F1DCFBE6092801003031323309
:1045500034353637383961626364656600000000BF
:1045600030313233343536373839414243444546A9
:1045700000000000F8B5044600251E4617468804D2
:1045800004D405E039462020B0476D1C641EF9D5DF
:104590002846F8BDFFB50446002581B01E46C80375
:1045A00001D5302700E02027880404D505E03846EF
:1045B0000399B0476D1C641EF9D5284605B0F0BDBF
:1045C00010B50520012202210007FCF79CFE10BD5A
:1045D0000021800101E0491C89B28842FBDC704760
:1045E000F0B59C460024069F059E134625467A5D3D
:1045F0000255641C6D1CADB2A4B2082DF7D31D4F3B
:1046000000257A5D0255641C6D1CADB2A4B20C2D60
:10461000F7D3FE250555641CA4B2EF270755641C8B
:10462000A4B20A780255641CA2B249788154521C83
:1046300091B206224254491C89B24354491C89B2A2
:10464000320A4254491C89B24654491C89B200229C
:1046500006E063469C5C4454491C521C89B292B2E9
:10466000B242F6D34754491C89B24554491CC8B2DA
:10467000F0BD000080000020F0B5794E87B000202A
:10468000049032787748784C0390204608303746BB
:104690001C3706903878059020780190734871494E
:1046A0000078009071480C390B46407870330293C3
:1046B00000251300FFF72EFD07D00522496288A4CC
:1046C000D000684801226C38C2800D7364490092A2
:1046D000143101916549039B0298FFF781FF014660
:1046E000029800F029FA62A0FFF704FD012038705B
:1046F00025706580022030707D60ADE0059802284D
:1047000001D10120307001980128F6D1002004E089
:1047100021180A7F401C0A7280B2618814398142D4
:10472000F6DC207B06280FD1617B204601290BD1C6
:104730004E49027C0A70607C48707D603D700320A9
:1047400030704E490C2008707FE0464801226C38DA
:10475000C2800A73424900921431019102224349F6
:10476000039B0298FFF73CFF0146029800F0E4F932
:10477000012038702570658004203FE005990229EA
:1047800001D1032131700199012965D1002104E093
:104790006218137F491C1372C9B26288143A8A42A4
:1047A000F6DC217B062950D1A37A009A2146934258
:1047B0004BD1CA7A824248D1607B022845D17D60C4
:1047C0003D700520307040E0264A02236C3AD380C9
:1047D000009A0A734873224900931431019105220B
:1047E0002249039B0298FFF7FBFE0146029800F066
:1047F000A3F90120387025706580062030702BE009
:104800000599022901D1052131700199012923D18E
:10481000002104E06218137F491C1372C9B2628838
:10482000143A8A42F6DC217B06290ED1A37A009A3B
:104830002146934209D1CA7A824206D1607B05287B
:1048400003D17D603D7001200490257065800121B9
:1048500089020698FBF7ABFC049807B0F0BD000096
:104860005C000020780F0020A8030020E00B00204F
:104870006E657420696E0D0A0000000008000020BB
:1048800010B5FEF7AFF9002010BD10B5FEF76CFBB8
:10489000002010BD13B5044B012269460348FDF703
:1048A000A3FE00981CBD0000FFFF000024010020B3
:1048B0007CB505461049114A0120487111690E4B1B
:1048C000491C164614365B1D0D4C1161002D04D099
:1048D0000C4DA9420DD900211161074900903022E9
:1048E000203901962046FFF77BFE0146204600F066
:1048F00023F900207CBD0000000C00205C0000209B
:10490000DC0F0020A08C0000FBF73AFDFFF7AEFBA8
:104910000248FCF737FDFEF753FFF9E7940000204B
:1049200010B50122052011460007FCF7ECFC10BD74
:1049300010B50520002202210007FCF7E4FC10BDA1
:1049400038B505460024FEF7DDF9002818D101200E
:10495000FEF7B9F9002811D1FF226B462D32002154
:104960000120FEF71FFA002802D0092805D007E031
:10497000684600882880012402E00224FEF7A0FE99
:10498000204638BDF8B5224C2078012835D121A029
:10499000FFF7B0FB2046083003221FA10090FBF771
:1049A00025FC002807D008221CA10098FBF71EFC5C
:1049B000002823D01EE01D4E00256719F97A1CA09F
:1049C000FFF798FBF87A70556D1CADB20C2DF4D33F
:1049D000032216491848FCF793F90025715D14A0CD
:1049E000FFF788FB6D1CADB20C2DF7D361880098E2
:1049F00000F0A2F8002020706080F8BD01200F496F
:104A0000024608600C488038FCF77AF9EEE70000AF
:104A1000A803002031323300736E3A006578697460
:104A200020666163746F72790000000080000020CE
:104A3000736E3D256300000080FF00088C0000209D
:104A4000F8B5064600252C495220FEF731FC002817
:104A500050D129480178042904D0022907D0082917
:104A60000AD00FE0407800280CD124A008E040785C
:104A7000002807D125A003E04078002802D127A014
:104A8000FFF738FB1C48801CFEF705FB002831D1DE
:104A900019480021801C425C7254491CC9B2042987
:104AA000F9D31548801CFEF76DFC002822D1124C6A
:104AB0000220641E2070E31C0B211A1D6020FEF7EB
:104AC0001EFB002816D1207818498006000EFEF73C
:104AD000CAFB00280ED10125144F0024385D305543
:104AE000395D13A0FFF706FB641CE4B2102CF5D36C
:104AF000FFF7D0FA2846F8BD4D000020BFA8B5C486
:104B0000C0E0D0CD3A5335300D0A0000BFA8B5C47F
:104B1000C0E0D0CD3A5337300D0A0000BFA8B5C46D
:104B2000C0E0D0CD3A580D0A00000000D00B0020A4
:104B300025303278000000000A4610B500230146F7
:104B4000DB430248FDF750FD10BD0000A40100202A
:104B5000000000000000000001020304060708092D
:104B6000030406080C1018203000000000010203A6
:104B700004000000944B0008000000209400000096
:104B80002E410008284C0008940000208C1D0000D5
:104B90003E41000801040000000000000000000386
:104BA0000000000000000000000000000000000005
:104BB00000000000000000000000000000000000F5
:104BC00000000000000000000000000000002000C5
:104BD000FFFFFFFF000000000000000000000000D9
:104BE00000000000000000FFFFFFFFFFFF000000CB
:104BF00001050000000000000000000000000000AF
:104C000000000000000000000000000100000000A3
:104C100000000000AA000000000000000000005892
:084C200000000000000000008C
:04000005080000C12E
:00000001FF
